{
  "_format": "hh-sol-artifact-1",
  "contractName": "Yard",
  "sourceName": "contracts/Yard.sol",
  "abi": [
    {
      "inputs": [
        {
          "internalType": "address",
          "name": "_captainContract",
          "type": "address"
        },
        {
          "internalType": "address",
          "name": "_fishContract",
          "type": "address"
        }
      ],
      "stateMutability": "nonpayable",
      "type": "constructor"
    },
    {
      "anonymous": false,
      "inputs": [
        {
          "indexed": true,
          "internalType": "address",
          "name": "owner",
          "type": "address"
        },
        {
          "indexed": true,
          "internalType": "address",
          "name": "spender",
          "type": "address"
        },
        {
          "indexed": false,
          "internalType": "uint256",
          "name": "value",
          "type": "uint256"
        }
      ],
      "name": "Approval",
      "type": "event"
    },
    {
      "anonymous": false,
      "inputs": [
        {
          "indexed": false,
          "internalType": "address",
          "name": "owner",
          "type": "address"
        },
        {
          "indexed": false,
          "internalType": "uint256",
          "name": "numberOfFeed",
          "type": "uint256"
        }
      ],
      "name": "Burned",
      "type": "event"
    },
    {
      "anonymous": false,
      "inputs": [
        {
          "indexed": false,
          "internalType": "address",
          "name": "owner",
          "type": "address"
        },
        {
          "indexed": false,
          "internalType": "uint256",
          "name": "numberOfEggs",
          "type": "uint256"
        }
      ],
      "name": "BurnedFish",
      "type": "event"
    },
    {
      "anonymous": false,
      "inputs": [
        {
          "indexed": false,
          "internalType": "address",
          "name": "user",
          "type": "address"
        },
        {
          "indexed": false,
          "internalType": "uint256",
          "name": "amount",
          "type": "uint256"
        }
      ],
      "name": "FishStaked",
      "type": "event"
    },
    {
      "anonymous": false,
      "inputs": [
        {
          "indexed": false,
          "internalType": "address",
          "name": "owner",
          "type": "address"
        },
        {
          "indexed": false,
          "internalType": "uint256",
          "name": "numberOfFeed",
          "type": "uint256"
        }
      ],
      "name": "FishSwap",
      "type": "event"
    },
    {
      "anonymous": false,
      "inputs": [
        {
          "indexed": false,
          "internalType": "address",
          "name": "user",
          "type": "address"
        },
        {
          "indexed": false,
          "internalType": "uint256",
          "name": "amount",
          "type": "uint256"
        }
      ],
      "name": "FishUnStaked",
      "type": "event"
    },
    {
      "anonymous": false,
      "inputs": [
        {
          "indexed": false,
          "internalType": "address",
          "name": "owner",
          "type": "address"
        },
        {
          "indexed": false,
          "internalType": "uint256",
          "name": "numberOfFeed",
          "type": "uint256"
        }
      ],
      "name": "Minted",
      "type": "event"
    },
    {
      "anonymous": false,
      "inputs": [
        {
          "indexed": false,
          "internalType": "address",
          "name": "owner",
          "type": "address"
        },
        {
          "indexed": false,
          "internalType": "uint256",
          "name": "numberOfFeed",
          "type": "uint256"
        }
      ],
      "name": "MintedFish",
      "type": "event"
    },
    {
      "anonymous": false,
      "inputs": [
        {
          "indexed": true,
          "internalType": "address",
          "name": "previousOwner",
          "type": "address"
        },
        {
          "indexed": true,
          "internalType": "address",
          "name": "newOwner",
          "type": "address"
        }
      ],
      "name": "OwnershipTransferred",
      "type": "event"
    },
    {
      "anonymous": false,
      "inputs": [
        {
          "indexed": false,
          "internalType": "address",
          "name": "owner",
          "type": "address"
        },
        {
          "indexed": false,
          "internalType": "uint256",
          "name": "numberOfEggs",
          "type": "uint256"
        }
      ],
      "name": "StakedFish",
      "type": "event"
    },
    {
      "anonymous": false,
      "inputs": [
        {
          "indexed": true,
          "internalType": "address",
          "name": "from",
          "type": "address"
        },
        {
          "indexed": true,
          "internalType": "address",
          "name": "to",
          "type": "address"
        },
        {
          "indexed": false,
          "internalType": "uint256",
          "name": "value",
          "type": "uint256"
        }
      ],
      "name": "Transfer",
      "type": "event"
    },
    {
      "anonymous": false,
      "inputs": [
        {
          "indexed": false,
          "internalType": "address",
          "name": "owner",
          "type": "address"
        },
        {
          "indexed": false,
          "internalType": "uint256",
          "name": "numberOfEggs",
          "type": "uint256"
        }
      ],
      "name": "UnstakedFish",
      "type": "event"
    },
    {
      "inputs": [],
      "name": "BOOSTER_MULTIPLIER",
      "outputs": [
        {
          "internalType": "uint256",
          "name": "",
          "type": "uint256"
        }
      ],
      "stateMutability": "view",
      "type": "function"
    },
    {
      "inputs": [],
      "name": "CAPTAIN_CONTRACT",
      "outputs": [
        {
          "internalType": "address",
          "name": "",
          "type": "address"
        }
      ],
      "stateMutability": "view",
      "type": "function"
    },
    {
      "inputs": [],
      "name": "FEED_FARMING_FACTOR",
      "outputs": [
        {
          "internalType": "uint256",
          "name": "",
          "type": "uint256"
        }
      ],
      "stateMutability": "view",
      "type": "function"
    },
    {
      "inputs": [],
      "name": "FEED_SWAP_FACTOR",
      "outputs": [
        {
          "internalType": "uint256",
          "name": "",
          "type": "uint256"
        }
      ],
      "stateMutability": "view",
      "type": "function"
    },
    {
      "inputs": [],
      "name": "FISH_CONTRACT",
      "outputs": [
        {
          "internalType": "address",
          "name": "",
          "type": "address"
        }
      ],
      "stateMutability": "view",
      "type": "function"
    },
    {
      "inputs": [],
      "name": "MAX_FEED_SUPPLY",
      "outputs": [
        {
          "internalType": "uint256",
          "name": "",
          "type": "uint256"
        }
      ],
      "stateMutability": "view",
      "type": "function"
    },
    {
      "inputs": [
        {
          "internalType": "uint256",
          "name": "",
          "type": "uint256"
        }
      ],
      "name": "_allFishStakeHolders",
      "outputs": [
        {
          "internalType": "address",
          "name": "",
          "type": "address"
        }
      ],
      "stateMutability": "view",
      "type": "function"
    },
    {
      "inputs": [
        {
          "internalType": "address",
          "name": "_toAdd",
          "type": "address"
        }
      ],
      "name": "addAuthorized",
      "outputs": [],
      "stateMutability": "nonpayable",
      "type": "function"
    },
    {
      "inputs": [
        {
          "internalType": "address",
          "name": "owner",
          "type": "address"
        },
        {
          "internalType": "address",
          "name": "spender",
          "type": "address"
        }
      ],
      "name": "allowance",
      "outputs": [
        {
          "internalType": "uint256",
          "name": "",
          "type": "uint256"
        }
      ],
      "stateMutability": "view",
      "type": "function"
    },
    {
      "inputs": [
        {
          "internalType": "address",
          "name": "spender",
          "type": "address"
        },
        {
          "internalType": "uint256",
          "name": "amount",
          "type": "uint256"
        }
      ],
      "name": "approve",
      "outputs": [
        {
          "internalType": "bool",
          "name": "",
          "type": "bool"
        }
      ],
      "stateMutability": "nonpayable",
      "type": "function"
    },
    {
      "inputs": [
        {
          "internalType": "address",
          "name": "",
          "type": "address"
        }
      ],
      "name": "authorized",
      "outputs": [
        {
          "internalType": "bool",
          "name": "",
          "type": "bool"
        }
      ],
      "stateMutability": "view",
      "type": "function"
    },
    {
      "inputs": [
        {
          "internalType": "address",
          "name": "account",
          "type": "address"
        }
      ],
      "name": "balanceOf",
      "outputs": [
        {
          "internalType": "uint256",
          "name": "",
          "type": "uint256"
        }
      ],
      "stateMutability": "view",
      "type": "function"
    },
    {
      "inputs": [],
      "name": "claimYard",
      "outputs": [],
      "stateMutability": "nonpayable",
      "type": "function"
    },
    {
      "inputs": [
        {
          "internalType": "address",
          "name": "user",
          "type": "address"
        }
      ],
      "name": "claimableView",
      "outputs": [
        {
          "internalType": "uint256",
          "name": "",
          "type": "uint256"
        }
      ],
      "stateMutability": "view",
      "type": "function"
    },
    {
      "inputs": [],
      "name": "decimals",
      "outputs": [
        {
          "internalType": "uint8",
          "name": "",
          "type": "uint8"
        }
      ],
      "stateMutability": "view",
      "type": "function"
    },
    {
      "inputs": [
        {
          "internalType": "address",
          "name": "spender",
          "type": "address"
        },
        {
          "internalType": "uint256",
          "name": "subtractedValue",
          "type": "uint256"
        }
      ],
      "name": "decreaseAllowance",
      "outputs": [
        {
          "internalType": "bool",
          "name": "",
          "type": "bool"
        }
      ],
      "stateMutability": "nonpayable",
      "type": "function"
    },
    {
      "inputs": [
        {
          "internalType": "uint256",
          "name": "tokenId",
          "type": "uint256"
        },
        {
          "internalType": "uint256",
          "name": "amount",
          "type": "uint256"
        }
      ],
      "name": "feedYard",
      "outputs": [],
      "stateMutability": "nonpayable",
      "type": "function"
    },
    {
      "inputs": [
        {
          "internalType": "address",
          "name": "",
          "type": "address"
        }
      ],
      "name": "fishStakeHolders",
      "outputs": [
        {
          "internalType": "address",
          "name": "user",
          "type": "address"
        },
        {
          "internalType": "uint32",
          "name": "since",
          "type": "uint32"
        },
        {
          "internalType": "uint256",
          "name": "amount",
          "type": "uint256"
        }
      ],
      "stateMutability": "view",
      "type": "function"
    },
    {
      "inputs": [
        {
          "internalType": "address",
          "name": "spender",
          "type": "address"
        },
        {
          "internalType": "uint256",
          "name": "addedValue",
          "type": "uint256"
        }
      ],
      "name": "increaseAllowance",
      "outputs": [
        {
          "internalType": "bool",
          "name": "",
          "type": "bool"
        }
      ],
      "stateMutability": "nonpayable",
      "type": "function"
    },
    {
      "inputs": [
        {
          "internalType": "address",
          "name": "sender",
          "type": "address"
        },
        {
          "internalType": "uint256",
          "name": "amount",
          "type": "uint256"
        }
      ],
      "name": "mintFeed",
      "outputs": [],
      "stateMutability": "nonpayable",
      "type": "function"
    },
    {
      "inputs": [],
      "name": "name",
      "outputs": [
        {
          "internalType": "string",
          "name": "",
          "type": "string"
        }
      ],
      "stateMutability": "view",
      "type": "function"
    },
    {
      "inputs": [],
      "name": "owner",
      "outputs": [
        {
          "internalType": "address",
          "name": "",
          "type": "address"
        }
      ],
      "stateMutability": "view",
      "type": "function"
    },
    {
      "inputs": [
        {
          "internalType": "uint256",
          "name": "from",
          "type": "uint256"
        },
        {
          "internalType": "uint256",
          "name": "to",
          "type": "uint256"
        }
      ],
      "name": "rebalanceStakingPool",
      "outputs": [],
      "stateMutability": "nonpayable",
      "type": "function"
    },
    {
      "inputs": [
        {
          "internalType": "address",
          "name": "_toRemove",
          "type": "address"
        }
      ],
      "name": "removeAuthorized",
      "outputs": [],
      "stateMutability": "nonpayable",
      "type": "function"
    },
    {
      "inputs": [],
      "name": "renounceOwnership",
      "outputs": [],
      "stateMutability": "nonpayable",
      "type": "function"
    },
    {
      "inputs": [
        {
          "internalType": "uint256",
          "name": "amount",
          "type": "uint256"
        }
      ],
      "name": "staking",
      "outputs": [],
      "stateMutability": "nonpayable",
      "type": "function"
    },
    {
      "inputs": [
        {
          "internalType": "uint256",
          "name": "fishAmt",
          "type": "uint256"
        }
      ],
      "name": "swapFishForFeed",
      "outputs": [],
      "stateMutability": "nonpayable",
      "type": "function"
    },
    {
      "inputs": [],
      "name": "symbol",
      "outputs": [
        {
          "internalType": "string",
          "name": "",
          "type": "string"
        }
      ],
      "stateMutability": "view",
      "type": "function"
    },
    {
      "inputs": [],
      "name": "totalFishHolder",
      "outputs": [
        {
          "internalType": "uint256",
          "name": "",
          "type": "uint256"
        }
      ],
      "stateMutability": "view",
      "type": "function"
    },
    {
      "inputs": [],
      "name": "totalFishStaked",
      "outputs": [
        {
          "internalType": "uint256",
          "name": "",
          "type": "uint256"
        }
      ],
      "stateMutability": "view",
      "type": "function"
    },
    {
      "inputs": [],
      "name": "totalSupply",
      "outputs": [
        {
          "internalType": "uint256",
          "name": "",
          "type": "uint256"
        }
      ],
      "stateMutability": "view",
      "type": "function"
    },
    {
      "inputs": [
        {
          "internalType": "address",
          "name": "to",
          "type": "address"
        },
        {
          "internalType": "uint256",
          "name": "amount",
          "type": "uint256"
        }
      ],
      "name": "transfer",
      "outputs": [
        {
          "internalType": "bool",
          "name": "",
          "type": "bool"
        }
      ],
      "stateMutability": "nonpayable",
      "type": "function"
    },
    {
      "inputs": [
        {
          "internalType": "address",
          "name": "from",
          "type": "address"
        },
        {
          "internalType": "address",
          "name": "to",
          "type": "address"
        },
        {
          "internalType": "uint256",
          "name": "amount",
          "type": "uint256"
        }
      ],
      "name": "transferFrom",
      "outputs": [
        {
          "internalType": "bool",
          "name": "",
          "type": "bool"
        }
      ],
      "stateMutability": "nonpayable",
      "type": "function"
    },
    {
      "inputs": [
        {
          "internalType": "address",
          "name": "newOwner",
          "type": "address"
        }
      ],
      "name": "transferOwnership",
      "outputs": [],
      "stateMutability": "nonpayable",
      "type": "function"
    },
    {
      "inputs": [
        {
          "internalType": "uint256",
          "name": "_value",
          "type": "uint256"
        }
      ],
      "name": "updateBoosterMultiplier",
      "outputs": [],
      "stateMutability": "nonpayable",
      "type": "function"
    },
    {
      "inputs": [
        {
          "internalType": "uint256",
          "name": "_value",
          "type": "uint256"
        }
      ],
      "name": "updateFarmingFactor",
      "outputs": [],
      "stateMutability": "nonpayable",
      "type": "function"
    },
    {
      "inputs": [
        {
          "internalType": "uint256",
          "name": "_value",
          "type": "uint256"
        }
      ],
      "name": "updateFeedSwapFactor",
      "outputs": [],
      "stateMutability": "nonpayable",
      "type": "function"
    },
    {
      "inputs": [
        {
          "internalType": "uint256",
          "name": "_value",
          "type": "uint256"
        }
      ],
      "name": "updateMaxFeedSupply",
      "outputs": [],
      "stateMutability": "nonpayable",
      "type": "function"
    },
    {
      "inputs": [],
      "name": "withdrawAllEggAndClaimFeed",
      "outputs": [],
      "stateMutability": "nonpayable",
      "type": "function"
    },
    {
      "inputs": [
        {
          "internalType": "uint256",
          "name": "amount",
          "type": "uint256"
        }
      ],
      "name": "withdrawEgg",
      "outputs": [],
      "stateMutability": "nonpayable",
      "type": "function"
    }
  ],
  "bytecode": "0x60806040526b6765c793fa10079d000000006007556040518060400160405280600481526020017f59415244000000000000000000000000000000000000000000000000000000008152506008908051906020019062000061929190620003c4565b506040518060400160405280600481526020017f594152440000000000000000000000000000000000000000000000000000000081525060099080519060200190620000af929190620003c4565b506001600c556003600d55600c600e55348015620000cc57600080fd5b5060405162004e9b38038062004e9b8339818101604052810190620000f291906200048b565b60088054620001019062000500565b80601f01602080910402602001604051908101604052809291908181526020018280546200012f9062000500565b8015620001805780601f10620001545761010080835404028352916020019162000180565b820191906000526020600020905b8154815290600101906020018083116200016257829003601f168201915b505050505060098054620001949062000500565b80601f0160208091040260200160405190810160405280929190818152602001828054620001c29062000500565b8015620002135780601f10620001e75761010080835404028352916020019162000213565b820191906000526020600020905b815481529060010190602001808311620001f557829003601f168201915b5050505050816003908051906020019062000230929190620003c4565b50806004908051906020019062000249929190620003c4565b5050506200026c62000260620002f660201b60201c565b620002fe60201b60201c565b81600a60006101000a81548173ffffffffffffffffffffffffffffffffffffffff021916908373ffffffffffffffffffffffffffffffffffffffff16021790555080600b60006101000a81548173ffffffffffffffffffffffffffffffffffffffff021916908373ffffffffffffffffffffffffffffffffffffffff16021790555050506200057f565b600033905090565b6000600560009054906101000a900473ffffffffffffffffffffffffffffffffffffffff16905081600560006101000a81548173ffffffffffffffffffffffffffffffffffffffff021916908373ffffffffffffffffffffffffffffffffffffffff1602179055508173ffffffffffffffffffffffffffffffffffffffff168173ffffffffffffffffffffffffffffffffffffffff167f8be0079c531659141344cd1fd0a4f28419497f9722a3daafe3b4186f6b6457e060405160405180910390a35050565b828054620003d29062000500565b90600052602060002090601f016020900481019282620003f6576000855562000442565b82601f106200041157805160ff191683800117855562000442565b8280016001018555821562000442579182015b828111156200044157825182559160200191906001019062000424565b5b50905062000451919062000455565b5090565b5b808211156200047057600081600090555060010162000456565b5090565b600081519050620004858162000565565b92915050565b600080604083850312156200049f57600080fd5b6000620004af8582860162000474565b9250506020620004c28582860162000474565b9150509250929050565b6000620004d982620004e0565b9050919050565b600073ffffffffffffffffffffffffffffffffffffffff82169050919050565b600060028204905060018216806200051957607f821691505b6020821081141562000530576200052f62000536565b5b50919050565b7f4e487b7100000000000000000000000000000000000000000000000000000000600052602260045260246000fd5b6200057081620004cc565b81146200057c57600080fd5b50565b61490c806200058f6000396000f3fe608060405234801561001057600080fd5b50600436106102485760003560e01c806388c00a581161013b578063cb4d6eb0116100b8578063e05c99561161007c578063e05c9956146106df578063e070d619146106fd578063f2fde38b14610719578063f692a73814610735578063fd1e39281461075157610248565b8063cb4d6eb01461063d578063ce78f4d71461065b578063cf1c316a14610677578063cfb109d314610693578063dd62ed3e146106af57610248565b8063a8c65b21116100ff578063a8c65b2114610599578063a9059cbb146105a3578063ab0b9d26146105d3578063af8702bd146105f1578063b91816111461060d57610248565b806388c00a58146105075780638da5cb5b14610511578063915b4fcb1461052f57806395d89b411461054b578063a457c2d71461056957610248565b8063313ce567116101c9578063605fba671161018d578063605fba671461046157806362ab674d1461049157806370a08231146104af578063715018a6146104df578063790e452a146104e957610248565b8063313ce567146103bf57806339509351146103dd5780633e46dd1b1461040d578063485d7d941461042957806357545a671461044557610248565b80631f6dc8ee116102105780631f6dc8ee14610305578063214e76dc1461032157806323b872dd146103535780632de16cf21461038357806331122c7d146103a157610248565b80630585f61e1461024d57806306fdde031461027d578063095ea7b31461029b57806318160ddd146102cb5780631dbb2a22146102e9575b600080fd5b61026760048036038101906102629190613657565b61076f565b6040516102749190613b1a565b60405180910390f35b6102856107ae565b6040516102929190613bb0565b60405180910390f35b6102b560048036038101906102b091906135a4565b610840565b6040516102c29190613b95565b60405180910390f35b6102d3610863565b6040516102e09190613f32565b60405180910390f35b61030360048036038101906102fe9190613657565b61086d565b005b61031f600480360381019061031a9190613657565b610bae565b005b61033b600480360381019061033691906134c7565b610bb8565b60405161034a93929190613b5e565b60405180910390f35b61036d60048036038101906103689190613555565b610c12565b60405161037a9190613b95565b60405180910390f35b61038b610c41565b6040516103989190613f32565b60405180910390f35b6103a9610c47565b6040516103b69190613b1a565b60405180910390f35b6103c7610c6d565b6040516103d49190613f76565b60405180910390f35b6103f760048036038101906103f291906135a4565b610c76565b6040516104049190613b95565b60405180910390f35b610427600480360381019061042291906136a9565b610cad565b005b610443600480360381019061043e91906134c7565b610e27565b005b61045f600480360381019061045a9190613657565b610f71565b005b61047b600480360381019061047691906134c7565b610f7b565b6040516104889190613f32565b60405180910390f35b610499611139565b6040516104a69190613b1a565b60405180910390f35b6104c960048036038101906104c491906134c7565b61115f565b6040516104d69190613f32565b60405180910390f35b6104e76111a7565b005b6104f161122f565b6040516104fe9190613f32565b60405180910390f35b61050f61123c565b005b6105196114b0565b6040516105269190613b1a565b60405180910390f35b61054960048036038101906105449190613657565b6114da565b005b6105536117b5565b6040516105609190613bb0565b60405180910390f35b610583600480360381019061057e91906135a4565b611847565b6040516105909190613b95565b60405180910390f35b6105a16118be565b005b6105bd60048036038101906105b891906135a4565b6119fe565b6040516105ca9190613b95565b60405180910390f35b6105db611a21565b6040516105e89190613f32565b60405180910390f35b61060b600480360381019061060691906136a9565b611a27565b005b610627600480360381019061062291906134c7565b611daf565b6040516106349190613b95565b60405180910390f35b610645611dcf565b6040516106529190613f32565b60405180910390f35b61067560048036038101906106709190613657565b611dd5565b005b610691600480360381019061068c91906134c7565b611ddf565b005b6106ad60048036038101906106a89190613657565b611ef0565b005b6106c960048036038101906106c49190613519565b61204e565b6040516106d69190613f32565b60405180910390f35b6106e76120d5565b6040516106f49190613f32565b60405180910390f35b61071760048036038101906107129190613657565b6120db565b005b610733600480360381019061072e91906134c7565b6120e5565b005b61074f600480360381019061074a91906135a4565b6121dd565b005b6107596121eb565b6040516107669190613f32565b60405180910390f35b6011818154811061077f57600080fd5b906000526020600020016000915054906101000a900473ffffffffffffffffffffffffffffffffffffffff1681565b6060600380546107bd9061417b565b80601f01602080910402602001604051908101604052809291908181526020018280546107e99061417b565b80156108365780601f1061080b57610100808354040283529160200191610836565b820191906000526020600020905b81548152906001019060200180831161081957829003601f168201915b5050505050905090565b60008061084b6121f1565b90506108588185856121f9565b600191505092915050565b6000600254905090565b600081116108b0576040517f08c379a00000000000000000000000000000000000000000000000000000000081526004016108a790613d72565b60405180910390fd5b6000600b60009054906101000a900473ffffffffffffffffffffffffffffffffffffffff16905060008173ffffffffffffffffffffffffffffffffffffffff166370a08231336040518263ffffffff1660e01b81526004016109129190613b1a565b60206040518083038186803b15801561092a57600080fd5b505afa15801561093e573d6000803e3d6000fd5b505050506040513d601f19601f820116820180604052508101906109629190613680565b9050828110156109a7576040517f08c379a000000000000000000000000000000000000000000000000000000000815260040161099e90613db2565b60405180910390fd5b6000600f60003373ffffffffffffffffffffffffffffffffffffffff1673ffffffffffffffffffffffffffffffffffffffff1681526020019081526020016000206040518060600160405290816000820160009054906101000a900473ffffffffffffffffffffffffffffffffffffffff1673ffffffffffffffffffffffffffffffffffffffff1673ffffffffffffffffffffffffffffffffffffffff1681526020016000820160149054906101000a900463ffffffff1663ffffffff1663ffffffff1681526020016001820154815250509050600081604001511115610af7576000610a9333610f7b565b9050610a9f33826123c4565b7f30385c845b448a36257a6a1716e6ad2e1bc2cbe333cde1e69fe849ad6511adfe3386604051610ad0929190613b35565b60405180910390a1610af133868460400151610aec9190613fad565b612524565b50610b02565b610b013385612524565b5b8273ffffffffffffffffffffffffffffffffffffffff1663e7564ef633866040518363ffffffff1660e01b8152600401610b3d929190613b35565b600060405180830381600087803b158015610b5757600080fd5b505af1158015610b6b573d6000803e3d6000fd5b505050507fbbe5f854ce12bcc82a9738ca4f3c2ccb7fbf0ec9f19dc9c4d7e34a730c04b6e73385604051610ba0929190613b35565b60405180910390a150505050565b80600c8190555050565b600f6020528060005260406000206000915090508060000160009054906101000a900473ffffffffffffffffffffffffffffffffffffffff16908060000160149054906101000a900463ffffffff16908060010154905083565b600080610c1d6121f1565b9050610c2a8582856128dd565b610c35858585612969565b60019150509392505050565b600e5481565b600b60009054906101000a900473ffffffffffffffffffffffffffffffffffffffff1681565b60006012905090565b600080610c816121f1565b9050610ca2818585610c93858961204e565b610c9d9190613fad565b6121f9565b600191505092915050565b60008290505b818111610e22576000610cc582612bea565b90506000610cd282610f7b565b90506000600f60008473ffffffffffffffffffffffffffffffffffffffff1673ffffffffffffffffffffffffffffffffffffffff1681526020019081526020016000206040518060600160405290816000820160009054906101000a900473ffffffffffffffffffffffffffffffffffffffff1673ffffffffffffffffffffffffffffffffffffffff1673ffffffffffffffffffffffffffffffffffffffff1681526020016000820160149054906101000a900463ffffffff1663ffffffff1663ffffffff1681526020016001820154815250509050610db283836123c4565b7f30385c845b448a36257a6a1716e6ad2e1bc2cbe333cde1e69fe849ad6511adfe8383604051610de3929190613b35565b60405180910390a1610e0c83670de0b6b3a76400008360400151610e079190614034565b612524565b5050508080610e1a906141ad565b915050610cb3565b505050565b610e2f6121f1565b73ffffffffffffffffffffffffffffffffffffffff16610e4d6114b0565b73ffffffffffffffffffffffffffffffffffffffff1614610ea3576040517f08c379a0000000000000000000000000000000000000000000000000000000008152600401610e9a90613d92565b60405180910390fd5b600073ffffffffffffffffffffffffffffffffffffffff168173ffffffffffffffffffffffffffffffffffffffff161415610edd57600080fd5b3373ffffffffffffffffffffffffffffffffffffffff168173ffffffffffffffffffffffffffffffffffffffff161415610f1657600080fd5b6000600660008373ffffffffffffffffffffffffffffffffffffffff1673ffffffffffffffffffffffffffffffffffffffff16815260200190815260200160002060006101000a81548160ff02191690831515021790555050565b80600d8190555050565b600080600f60008473ffffffffffffffffffffffffffffffffffffffff1673ffffffffffffffffffffffffffffffffffffffff1681526020019081526020016000206040518060600160405290816000820160009054906101000a900473ffffffffffffffffffffffffffffffffffffffff1673ffffffffffffffffffffffffffffffffffffffff1673ffffffffffffffffffffffffffffffffffffffff1681526020016000820160149054906101000a900463ffffffff1663ffffffff1663ffffffff1681526020016001820154815250509050600073ffffffffffffffffffffffffffffffffffffffff16816000015173ffffffffffffffffffffffffffffffffffffffff1614156110c4576040517f08c379a00000000000000000000000000000000000000000000000000000000081526004016110bb90613e92565b60405180910390fd5b6402540be400600c54620151806402540be400846020015163ffffffff16426110ed919061408e565b6110f79190614034565b6111019190614003565b600d5484604001516111139190614034565b61111d9190614034565b6111279190614034565b6111319190614003565b915050919050565b600a60009054906101000a900473ffffffffffffffffffffffffffffffffffffffff1681565b60008060008373ffffffffffffffffffffffffffffffffffffffff1673ffffffffffffffffffffffffffffffffffffffff168152602001908152602001600020549050919050565b6111af6121f1565b73ffffffffffffffffffffffffffffffffffffffff166111cd6114b0565b73ffffffffffffffffffffffffffffffffffffffff1614611223576040517f08c379a000000000000000000000000000000000000000000000000000000000815260040161121a90613d92565b60405180910390fd5b61122d6000612c58565b565b6000601180549050905090565b6000600f60003373ffffffffffffffffffffffffffffffffffffffff1673ffffffffffffffffffffffffffffffffffffffff1681526020019081526020016000206040518060600160405290816000820160009054906101000a900473ffffffffffffffffffffffffffffffffffffffff1673ffffffffffffffffffffffffffffffffffffffff1673ffffffffffffffffffffffffffffffffffffffff1681526020016000820160149054906101000a900463ffffffff1663ffffffff1663ffffffff1681526020016001820154815250509050600073ffffffffffffffffffffffffffffffffffffffff16816000015173ffffffffffffffffffffffffffffffffffffffff161415611384576040517f08c379a000000000000000000000000000000000000000000000000000000000815260040161137b90613d12565b60405180910390fd5b600061138f33610f7b565b905060008111156113a5576113a43382612d1e565b5b6000826040015111156114a3576000600c600b84604001516113c79190614034565b6113d19190614003565b90506000600b60009054906101000a900473ffffffffffffffffffffffffffffffffffffffff1690508073ffffffffffffffffffffffffffffffffffffffff16636e8110a533846040518363ffffffff1660e01b8152600401611435929190613b35565b600060405180830381600087803b15801561144f57600080fd5b505af1158015611463573d6000803e3d6000fd5b505050507fbd1c734d01bd6260727e78a4a15eab77d573421f5704124aed0a26d5187479553383604051611498929190613b35565b60405180910390a150505b6114ac33612de1565b5050565b6000600560009054906101000a900473ffffffffffffffffffffffffffffffffffffffff16905090565b6000811161151d576040517f08c379a000000000000000000000000000000000000000000000000000000000815260040161151490613d52565b60405180910390fd5b6000600f60003373ffffffffffffffffffffffffffffffffffffffff1673ffffffffffffffffffffffffffffffffffffffff1681526020019081526020016000206040518060600160405290816000820160009054906101000a900473ffffffffffffffffffffffffffffffffffffffff1673ffffffffffffffffffffffffffffffffffffffff1673ffffffffffffffffffffffffffffffffffffffff1681526020016000820160149054906101000a900463ffffffff1663ffffffff1663ffffffff1681526020016001820154815250509050600073ffffffffffffffffffffffffffffffffffffffff16816000015173ffffffffffffffffffffffffffffffffffffffff161415611665576040517f08c379a000000000000000000000000000000000000000000000000000000000815260040161165c90613c12565b60405180910390fd5b80604001518211156116ac576040517f08c379a00000000000000000000000000000000000000000000000000000000081526004016116a390613d32565b60405180910390fd5b6000600b60009054906101000a900473ffffffffffffffffffffffffffffffffffffffff1690506116ec338484604001516116e7919061408e565b612524565b6000600c600b856116fd9190614034565b6117079190614003565b90508173ffffffffffffffffffffffffffffffffffffffff16636e8110a533836040518363ffffffff1660e01b8152600401611744929190613b35565b600060405180830381600087803b15801561175e57600080fd5b505af1158015611772573d6000803e3d6000fd5b505050507fbd1c734d01bd6260727e78a4a15eab77d573421f5704124aed0a26d51874795533826040516117a7929190613b35565b60405180910390a150505050565b6060600480546117c49061417b565b80601f01602080910402602001604051908101604052809291908181526020018280546117f09061417b565b801561183d5780601f106118125761010080835404028352916020019161183d565b820191906000526020600020905b81548152906001019060200180831161182057829003601f168201915b5050505050905090565b6000806118526121f1565b90506000611860828661204e565b9050838110156118a5576040517f08c379a000000000000000000000000000000000000000000000000000000000815260040161189c90613eb2565b60405180910390fd5b6118b282868684036121f9565b60019250505092915050565b60006118c933610f7b565b90506000811161190e576040517f08c379a000000000000000000000000000000000000000000000000000000000815260040161190590613f12565b60405180910390fd5b6000600f60003373ffffffffffffffffffffffffffffffffffffffff1673ffffffffffffffffffffffffffffffffffffffff1681526020019081526020016000206040518060600160405290816000820160009054906101000a900473ffffffffffffffffffffffffffffffffffffffff1673ffffffffffffffffffffffffffffffffffffffff1673ffffffffffffffffffffffffffffffffffffffff1681526020016000820160149054906101000a900463ffffffff1663ffffffff1663ffffffff16815260200160018201548152505090506119f0338260400151612524565b6119fa3383612d1e565b5050565b600080611a096121f1565b9050611a16818585612969565b600191505092915050565b600d5481565b60008111611a6a576040517f08c379a0000000000000000000000000000000000000000000000000000000008152600401611a6190613e72565b60405180910390fd5b6000600a60009054906101000a900473ffffffffffffffffffffffffffffffffffffffff1690503373ffffffffffffffffffffffffffffffffffffffff168173ffffffffffffffffffffffffffffffffffffffff16636352211e856040518263ffffffff1660e01b8152600401611ae19190613f32565b60206040518083038186803b158015611af957600080fd5b505afa158015611b0d573d6000803e3d6000fd5b505050506040513d601f19601f82011682018060405250810190611b3191906134f0565b73ffffffffffffffffffffffffffffffffffffffff1614611b87576040517f08c379a0000000000000000000000000000000000000000000000000000000008152600401611b7e90613e52565b60405180910390fd5b81611b913361115f565b1015611bd2576040517f08c379a0000000000000000000000000000000000000000000000000000000008152600401611bc990613c52565b60405180910390fd5b6000600b60009054906101000a900473ffffffffffffffffffffffffffffffffffffffff16905060008173ffffffffffffffffffffffffffffffffffffffff16637ab7b883866040518263ffffffff1660e01b8152600401611c349190613f32565b60a06040518083038186803b158015611c4c57600080fd5b505afa158015611c60573d6000803e3d6000fd5b505050506040513d601f19601f82011682018060405250810190611c8491906135e0565b50505050905060008162ffffff1611611cd2576040517f08c379a0000000000000000000000000000000000000000000000000000000008152600401611cc990613ed2565b60405180910390fd5b611cef33670de0b6b3a764000086611cea9190614034565b613013565b7f696de425f79f4a40bc6d2122ca50507f0efbeabbff86a84871b7196ab8ea8df733670de0b6b3a764000086611d259190614034565b604051611d33929190613b35565b60405180910390a18173ffffffffffffffffffffffffffffffffffffffff166348b82ceb86866040518363ffffffff1660e01b8152600401611d76929190613f4d565b600060405180830381600087803b158015611d9057600080fd5b505af1158015611da4573d6000803e3d6000fd5b505050505050505050565b60066020528060005260406000206000915054906101000a900460ff1681565b60075481565b8060078190555050565b611de76121f1565b73ffffffffffffffffffffffffffffffffffffffff16611e056114b0565b73ffffffffffffffffffffffffffffffffffffffff1614611e5b576040517f08c379a0000000000000000000000000000000000000000000000000000000008152600401611e5290613d92565b60405180910390fd5b600073ffffffffffffffffffffffffffffffffffffffff168173ffffffffffffffffffffffffffffffffffffffff161415611e9557600080fd5b6001600660008373ffffffffffffffffffffffffffffffffffffffff1673ffffffffffffffffffffffffffffffffffffffff16815260200190815260200160002060006101000a81548160ff02191690831515021790555050565b60008111611f33576040517f08c379a0000000000000000000000000000000000000000000000000000000008152600401611f2a90613e12565b60405180910390fd5b6000600b60009054906101000a900473ffffffffffffffffffffffffffffffffffffffff1690508073ffffffffffffffffffffffffffffffffffffffff1663e7564ef633846040518363ffffffff1660e01b8152600401611f95929190613b35565b600060405180830381600087803b158015611faf57600080fd5b505af1158015611fc3573d6000803e3d6000fd5b50505050611ff133600e54670de0b6b3a764000085611fe29190614034565b611fec9190614034565b6123c4565b7f15e851042ade125ce6f2107412efe017e949bd5336edab54e5e411d1d6fc363c33600e54670de0b6b3a76400008561202a9190614034565b6120349190614034565b604051612042929190613b35565b60405180910390a15050565b6000600160008473ffffffffffffffffffffffffffffffffffffffff1673ffffffffffffffffffffffffffffffffffffffff16815260200190815260200160002060008373ffffffffffffffffffffffffffffffffffffffff1673ffffffffffffffffffffffffffffffffffffffff16815260200190815260200160002054905092915050565b600c5481565b80600e8190555050565b6120ed6121f1565b73ffffffffffffffffffffffffffffffffffffffff1661210b6114b0565b73ffffffffffffffffffffffffffffffffffffffff1614612161576040517f08c379a000000000000000000000000000000000000000000000000000000000815260040161215890613d92565b60405180910390fd5b600073ffffffffffffffffffffffffffffffffffffffff168173ffffffffffffffffffffffffffffffffffffffff1614156121d1576040517f08c379a00000000000000000000000000000000000000000000000000000000081526004016121c890613c72565b60405180910390fd5b6121da81612c58565b50565b6121e78282612d1e565b5050565b60105481565b600033905090565b600073ffffffffffffffffffffffffffffffffffffffff168373ffffffffffffffffffffffffffffffffffffffff161415612269576040517f08c379a000000000000000000000000000000000000000000000000000000000815260040161226090613e32565b60405180910390fd5b600073ffffffffffffffffffffffffffffffffffffffff168273ffffffffffffffffffffffffffffffffffffffff1614156122d9576040517f08c379a00000000000000000000000000000000000000000000000000000000081526004016122d090613c92565b60405180910390fd5b80600160008573ffffffffffffffffffffffffffffffffffffffff1673ffffffffffffffffffffffffffffffffffffffff16815260200190815260200160002060008473ffffffffffffffffffffffffffffffffffffffff1673ffffffffffffffffffffffffffffffffffffffff168152602001908152602001600020819055508173ffffffffffffffffffffffffffffffffffffffff168373ffffffffffffffffffffffffffffffffffffffff167f8c5be1e5ebec7d5bd14f71427d1e84f3dd0314c0f7b2291e5b200ac8c7c3b925836040516123b79190613f32565b60405180910390a3505050565b600073ffffffffffffffffffffffffffffffffffffffff168273ffffffffffffffffffffffffffffffffffffffff161415612434576040517f08c379a000000000000000000000000000000000000000000000000000000000815260040161242b90613ef2565b60405180910390fd5b612440600083836131ea565b80600260008282546124529190613fad565b92505081905550806000808473ffffffffffffffffffffffffffffffffffffffff1673ffffffffffffffffffffffffffffffffffffffff16815260200190815260200160002060008282546124a79190613fad565b925050819055508173ffffffffffffffffffffffffffffffffffffffff16600073ffffffffffffffffffffffffffffffffffffffff167fddf252ad1be2c89b69c2b068fc378daa952ba7f163c4a11628f55a4df523b3ef8360405161250c9190613f32565b60405180910390a3612520600083836131ef565b5050565b600073ffffffffffffffffffffffffffffffffffffffff168273ffffffffffffffffffffffffffffffffffffffff161415612594576040517f08c379a000000000000000000000000000000000000000000000000000000000815260040161258b90613c32565b60405180910390fd5b6000600f60008473ffffffffffffffffffffffffffffffffffffffff1673ffffffffffffffffffffffffffffffffffffffff1681526020019081526020016000206040518060600160405290816000820160009054906101000a900473ffffffffffffffffffffffffffffffffffffffff1673ffffffffffffffffffffffffffffffffffffffff1673ffffffffffffffffffffffffffffffffffffffff1681526020016000820160149054906101000a900463ffffffff1663ffffffff1663ffffffff1681526020016001820154815250509050600073ffffffffffffffffffffffffffffffffffffffff16816000015173ffffffffffffffffffffffffffffffffffffffff16141561274e57601180549050601260008573ffffffffffffffffffffffffffffffffffffffff1673ffffffffffffffffffffffffffffffffffffffff168152602001908152602001600020819055506011839080600181540180825580915050600190039060005260206000200160009091909190916101000a81548173ffffffffffffffffffffffffffffffffffffffff021916908373ffffffffffffffffffffffffffffffffffffffff1602179055505b60008160400151905083826000019073ffffffffffffffffffffffffffffffffffffffff16908173ffffffffffffffffffffffffffffffffffffffff16815250508282604001818152505042826020019063ffffffff16908163ffffffff168152505081600f60008673ffffffffffffffffffffffffffffffffffffffff1673ffffffffffffffffffffffffffffffffffffffff16815260200190815260200160002060008201518160000160006101000a81548173ffffffffffffffffffffffffffffffffffffffff021916908373ffffffffffffffffffffffffffffffffffffffff16021790555060208201518160000160146101000a81548163ffffffff021916908363ffffffff16021790555060408201518160010155905050670de0b6b3a7640000836128809190614034565b8160105461288e919061408e565b6128989190613fad565b6010819055507f3896755200b622a5dd47e85999ca039c2c42141a90b0bce89e6a6db942bae84284846040516128cf929190613b35565b60405180910390a150505050565b60006128e9848461204e565b90507fffffffffffffffffffffffffffffffffffffffffffffffffffffffffffffffff81146129635781811015612955576040517f08c379a000000000000000000000000000000000000000000000000000000000815260040161294c90613cd2565b60405180910390fd5b61296284848484036121f9565b5b50505050565b600073ffffffffffffffffffffffffffffffffffffffff168373ffffffffffffffffffffffffffffffffffffffff1614156129d9576040517f08c379a00000000000000000000000000000000000000000000000000000000081526004016129d090613df2565b60405180910390fd5b600073ffffffffffffffffffffffffffffffffffffffff168273ffffffffffffffffffffffffffffffffffffffff161415612a49576040517f08c379a0000000000000000000000000000000000000000000000000000000008152600401612a4090613bd2565b60405180910390fd5b612a548383836131ea565b60008060008573ffffffffffffffffffffffffffffffffffffffff1673ffffffffffffffffffffffffffffffffffffffff16815260200190815260200160002054905081811015612ada576040517f08c379a0000000000000000000000000000000000000000000000000000000008152600401612ad190613cf2565b60405180910390fd5b8181036000808673ffffffffffffffffffffffffffffffffffffffff1673ffffffffffffffffffffffffffffffffffffffff16815260200190815260200160002081905550816000808573ffffffffffffffffffffffffffffffffffffffff1673ffffffffffffffffffffffffffffffffffffffff1681526020019081526020016000206000828254612b6d9190613fad565b925050819055508273ffffffffffffffffffffffffffffffffffffffff168473ffffffffffffffffffffffffffffffffffffffff167fddf252ad1be2c89b69c2b068fc378daa952ba7f163c4a11628f55a4df523b3ef84604051612bd19190613f32565b60405180910390a3612be48484846131ef565b50505050565b600060118281548110612c26577f4e487b7100000000000000000000000000000000000000000000000000000000600052603260045260246000fd5b9060005260206000200160009054906101000a900473ffffffffffffffffffffffffffffffffffffffff169050919050565b6000600560009054906101000a900473ffffffffffffffffffffffffffffffffffffffff16905081600560006101000a81548173ffffffffffffffffffffffffffffffffffffffff021916908373ffffffffffffffffffffffffffffffffffffffff1602179055508173ffffffffffffffffffffffffffffffffffffffff168173ffffffffffffffffffffffffffffffffffffffff167f8be0079c531659141344cd1fd0a4f28419497f9722a3daafe3b4186f6b6457e060405160405180910390a35050565b60075481612d2a610863565b612d349190613fad565b10612d74576040517f08c379a0000000000000000000000000000000000000000000000000000000008152600401612d6b90613cb2565b60405180910390fd5b612d9182670de0b6b3a764000083612d8c9190614034565b6123c4565b7f30385c845b448a36257a6a1716e6ad2e1bc2cbe333cde1e69fe849ad6511adfe82670de0b6b3a764000083612dc79190614034565b604051612dd5929190613b35565b60405180910390a15050565b6000600f60008373ffffffffffffffffffffffffffffffffffffffff1673ffffffffffffffffffffffffffffffffffffffff1681526020019081526020016000206040518060600160405290816000820160009054906101000a900473ffffffffffffffffffffffffffffffffffffffff1673ffffffffffffffffffffffffffffffffffffffff1673ffffffffffffffffffffffffffffffffffffffff1681526020016000820160149054906101000a900463ffffffff1663ffffffff1663ffffffff1681526020016001820154815250509050600073ffffffffffffffffffffffffffffffffffffffff16816000015173ffffffffffffffffffffffffffffffffffffffff161415612f29576040517f08c379a0000000000000000000000000000000000000000000000000000000008152600401612f2090613c32565b60405180910390fd5b8060400151601054612f3b919061408e565b601081905550612f4a826131f4565b600f60008373ffffffffffffffffffffffffffffffffffffffff1673ffffffffffffffffffffffffffffffffffffffff168152602001908152602001600020600080820160006101000a81549073ffffffffffffffffffffffffffffffffffffffff02191690556000820160146101000a81549063ffffffff0219169055600182016000905550507fad439def06921b9de0ad7c05fac813460578e26216345c83bf10d45bf3bea427828260400151604051613007929190613b35565b60405180910390a15050565b600073ffffffffffffffffffffffffffffffffffffffff168273ffffffffffffffffffffffffffffffffffffffff161415613083576040517f08c379a000000000000000000000000000000000000000000000000000000000815260040161307a90613dd2565b60405180910390fd5b61308f826000836131ea565b60008060008473ffffffffffffffffffffffffffffffffffffffff1673ffffffffffffffffffffffffffffffffffffffff16815260200190815260200160002054905081811015613115576040517f08c379a000000000000000000000000000000000000000000000000000000000815260040161310c90613bf2565b60405180910390fd5b8181036000808573ffffffffffffffffffffffffffffffffffffffff1673ffffffffffffffffffffffffffffffffffffffff16815260200190815260200160002081905550816002600082825461316c919061408e565b92505081905550600073ffffffffffffffffffffffffffffffffffffffff168373ffffffffffffffffffffffffffffffffffffffff167fddf252ad1be2c89b69c2b068fc378daa952ba7f163c4a11628f55a4df523b3ef846040516131d19190613f32565b60405180910390a36131e5836000846131ef565b505050565b505050565b505050565b60006001601180549050613208919061408e565b90506000601260008473ffffffffffffffffffffffffffffffffffffffff1673ffffffffffffffffffffffffffffffffffffffff16815260200190815260200160002054905060006011838154811061328a577f4e487b7100000000000000000000000000000000000000000000000000000000600052603260045260246000fd5b9060005260206000200160009054906101000a900473ffffffffffffffffffffffffffffffffffffffff16905080601183815481106132f2577f4e487b7100000000000000000000000000000000000000000000000000000000600052603260045260246000fd5b9060005260206000200160006101000a81548173ffffffffffffffffffffffffffffffffffffffff021916908373ffffffffffffffffffffffffffffffffffffffff16021790555081601260008373ffffffffffffffffffffffffffffffffffffffff1673ffffffffffffffffffffffffffffffffffffffff16815260200190815260200160002081905550601260008573ffffffffffffffffffffffffffffffffffffffff1673ffffffffffffffffffffffffffffffffffffffff1681526020019081526020016000206000905560118054806133f9577f4e487b7100000000000000000000000000000000000000000000000000000000600052603160045260246000fd5b6001900381819060005260206000200160006101000a81549073ffffffffffffffffffffffffffffffffffffffff0219169055905550505050565b60008135905061344381614863565b92915050565b60008151905061345881614863565b92915050565b60008151905061346d8161487a565b92915050565b60008135905061348281614891565b92915050565b60008151905061349781614891565b92915050565b6000815190506134ac816148a8565b92915050565b6000815190506134c1816148bf565b92915050565b6000602082840312156134d957600080fd5b60006134e784828501613434565b91505092915050565b60006020828403121561350257600080fd5b600061351084828501613449565b91505092915050565b6000806040838503121561352c57600080fd5b600061353a85828601613434565b925050602061354b85828601613434565b9150509250929050565b60008060006060848603121561356a57600080fd5b600061357886828701613434565b935050602061358986828701613434565b925050604061359a86828701613473565b9150509250925092565b600080604083850312156135b757600080fd5b60006135c585828601613434565b92505060206135d685828601613473565b9150509250929050565b600080600080600060a086880312156135f857600080fd5b60006136068882890161345e565b95505060206136178882890161349d565b94505060406136288882890161349d565b9350506060613639888289016134b2565b925050608061364a8882890161349d565b9150509295509295909350565b60006020828403121561366957600080fd5b600061367784828501613473565b91505092915050565b60006020828403121561369257600080fd5b60006136a084828501613488565b91505092915050565b600080604083850312156136bc57600080fd5b60006136ca85828601613473565b92505060206136db85828601613473565b9150509250929050565b6136ee816140c2565b82525050565b6136fd816140d4565b82525050565b600061370e82613f91565b6137188185613f9c565b9350613728818560208601614148565b61373181614283565b840191505092915050565b6000613749602383613f9c565b915061375482614294565b604082019050919050565b600061376c602283613f9c565b9150613777826142e3565b604082019050919050565b600061378f601a83613f9c565b915061379a82614332565b602082019050919050565b60006137b2600d83613f9c565b91506137bd8261435b565b602082019050919050565b60006137d5600f83613f9c565b91506137e082614384565b602082019050919050565b60006137f8602683613f9c565b9150613803826143ad565b604082019050919050565b600061381b602283613f9c565b9150613826826143fc565b604082019050919050565b600061383e600f83613f9c565b91506138498261444b565b602082019050919050565b6000613861601d83613f9c565b915061386c82614474565b602082019050919050565b6000613884602683613f9c565b915061388f8261449d565b604082019050919050565b60006138a7602983613f9c565b91506138b2826144ec565b604082019050919050565b60006138ca600983613f9c565b91506138d58261453b565b602082019050919050565b60006138ed601383613f9c565b91506138f882614564565b602082019050919050565b6000613910600883613f9c565b915061391b8261458d565b602082019050919050565b6000613933602083613f9c565b915061393e826145b6565b602082019050919050565b6000613956600f83613f9c565b9150613961826145df565b602082019050919050565b6000613979602183613f9c565b915061398482614608565b604082019050919050565b600061399c602583613f9c565b91506139a782614657565b604082019050919050565b60006139bf601883613f9c565b91506139ca826146a6565b602082019050919050565b60006139e2602483613f9c565b91506139ed826146cf565b604082019050919050565b6000613a05600983613f9c565b9150613a108261471e565b602082019050919050565b6000613a28601883613f9c565b9150613a3382614747565b602082019050919050565b6000613a4b601c83613f9c565b9150613a5682614770565b602082019050919050565b6000613a6e602583613f9c565b9150613a7982614799565b604082019050919050565b6000613a91601783613f9c565b9150613a9c826147e8565b602082019050919050565b6000613ab4601f83613f9c565b9150613abf82614811565b602082019050919050565b6000613ad7601083613f9c565b9150613ae28261483a565b602082019050919050565b613af68161410f565b82525050565b613b0581614119565b82525050565b613b148161413b565b82525050565b6000602082019050613b2f60008301846136e5565b92915050565b6000604082019050613b4a60008301856136e5565b613b576020830184613aed565b9392505050565b6000606082019050613b7360008301866136e5565b613b806020830185613afc565b613b8d6040830184613aed565b949350505050565b6000602082019050613baa60008301846136f4565b92915050565b60006020820190508181036000830152613bca8184613703565b905092915050565b60006020820190508181036000830152613beb8161373c565b9050919050565b60006020820190508181036000830152613c0b8161375f565b9050919050565b60006020820190508181036000830152613c2b81613782565b9050919050565b60006020820190508181036000830152613c4b816137a5565b9050919050565b60006020820190508181036000830152613c6b816137c8565b9050919050565b60006020820190508181036000830152613c8b816137eb565b9050919050565b60006020820190508181036000830152613cab8161380e565b9050919050565b60006020820190508181036000830152613ccb81613831565b9050919050565b60006020820190508181036000830152613ceb81613854565b9050919050565b60006020820190508181036000830152613d0b81613877565b9050919050565b60006020820190508181036000830152613d2b8161389a565b9050919050565b60006020820190508181036000830152613d4b816138bd565b9050919050565b60006020820190508181036000830152613d6b816138e0565b9050919050565b60006020820190508181036000830152613d8b81613903565b9050919050565b60006020820190508181036000830152613dab81613926565b9050919050565b60006020820190508181036000830152613dcb81613949565b9050919050565b60006020820190508181036000830152613deb8161396c565b9050919050565b60006020820190508181036000830152613e0b8161398f565b9050919050565b60006020820190508181036000830152613e2b816139b2565b9050919050565b60006020820190508181036000830152613e4b816139d5565b9050919050565b60006020820190508181036000830152613e6b816139f8565b9050919050565b60006020820190508181036000830152613e8b81613a1b565b9050919050565b60006020820190508181036000830152613eab81613a3e565b9050919050565b60006020820190508181036000830152613ecb81613a61565b9050919050565b60006020820190508181036000830152613eeb81613a84565b9050919050565b60006020820190508181036000830152613f0b81613aa7565b9050919050565b60006020820190508181036000830152613f2b81613aca565b9050919050565b6000602082019050613f476000830184613aed565b92915050565b6000604082019050613f626000830185613aed565b613f6f6020830184613aed565b9392505050565b6000602082019050613f8b6000830184613b0b565b92915050565b600081519050919050565b600082825260208201905092915050565b6000613fb88261410f565b9150613fc38361410f565b9250827fffffffffffffffffffffffffffffffffffffffffffffffffffffffffffffffff03821115613ff857613ff76141f6565b5b828201905092915050565b600061400e8261410f565b91506140198361410f565b92508261402957614028614225565b5b828204905092915050565b600061403f8261410f565b915061404a8361410f565b9250817fffffffffffffffffffffffffffffffffffffffffffffffffffffffffffffffff0483118215151615614083576140826141f6565b5b828202905092915050565b60006140998261410f565b91506140a48361410f565b9250828210156140b7576140b66141f6565b5b828203905092915050565b60006140cd826140e0565b9050919050565b60008115159050919050565b600073ffffffffffffffffffffffffffffffffffffffff82169050919050565b600062ffffff82169050919050565b6000819050919050565b600063ffffffff82169050919050565b600065ffffffffffff82169050919050565b600060ff82169050919050565b60005b8381101561416657808201518184015260208101905061414b565b83811115614175576000848401525b50505050565b6000600282049050600182168061419357607f821691505b602082108114156141a7576141a6614254565b5b50919050565b60006141b88261410f565b91507fffffffffffffffffffffffffffffffffffffffffffffffffffffffffffffffff8214156141eb576141ea6141f6565b5b600182019050919050565b7f4e487b7100000000000000000000000000000000000000000000000000000000600052601160045260246000fd5b7f4e487b7100000000000000000000000000000000000000000000000000000000600052601260045260246000fd5b7f4e487b7100000000000000000000000000000000000000000000000000000000600052602260045260246000fd5b6000601f19601f8301169050919050565b7f45524332303a207472616e7366657220746f20746865207a65726f206164647260008201527f6573730000000000000000000000000000000000000000000000000000000000602082015250565b7f45524332303a206275726e20616d6f756e7420657863656564732062616c616e60008201527f6365000000000000000000000000000000000000000000000000000000000000602082015250565b7f4e4f54205354414b454420666f72207769746864726177456767000000000000600082015250565b7f454d505459204144445245535300000000000000000000000000000000000000600082015250565b7f4e4f5420454e4f55474820464545440000000000000000000000000000000000600082015250565b7f4f776e61626c653a206e6577206f776e657220697320746865207a65726f206160008201527f6464726573730000000000000000000000000000000000000000000000000000602082015250565b7f45524332303a20617070726f766520746f20746865207a65726f20616464726560008201527f7373000000000000000000000000000000000000000000000000000000000000602082015250565b7f4f564552204d415820535550504c590000000000000000000000000000000000600082015250565b7f45524332303a20696e73756666696369656e7420616c6c6f77616e6365000000600082015250565b7f45524332303a207472616e7366657220616d6f756e742065786365656473206260008201527f616c616e63650000000000000000000000000000000000000000000000000000602082015250565b7f4e4f54205354414b454420666f72207769746864726177416c6c456767416e6460008201527f436c61696d466565640000000000000000000000000000000000000000000000602082015250565b7f4f564552445241574e0000000000000000000000000000000000000000000000600082015250565b7f4d555354204245204d4f5245205448414e203000000000000000000000000000600082015250565b7f4e45454420454747000000000000000000000000000000000000000000000000600082015250565b7f4f776e61626c653a2063616c6c6572206973206e6f7420746865206f776e6572600082015250565b7f4e4f5420454e4f55474820464953480000000000000000000000000000000000600082015250565b7f45524332303a206275726e2066726f6d20746865207a65726f2061646472657360008201527f7300000000000000000000000000000000000000000000000000000000000000602082015250565b7f45524332303a207472616e736665722066726f6d20746865207a65726f20616460008201527f6472657373000000000000000000000000000000000000000000000000000000602082015250565b7f4d555354204245204d4f5245205448414e203020464953480000000000000000600082015250565b7f45524332303a20617070726f76652066726f6d20746865207a65726f2061646460008201527f7265737300000000000000000000000000000000000000000000000000000000602082015250565b7f4e4f54204f574e45520000000000000000000000000000000000000000000000600082015250565b7f4d555354204245204d4f5245205448414e203020464545440000000000000000600082015250565b7f4e4f54205354414b454420466f7220636c61696d61626c655669657700000000600082015250565b7f45524332303a2064656372656173656420616c6c6f77616e63652062656c6f7760008201527f207a65726f000000000000000000000000000000000000000000000000000000602082015250565b7f4e4f54205354414b454420666f72206665656459617264000000000000000000600082015250565b7f45524332303a206d696e7420746f20746865207a65726f206164647265737300600082015250565b7f4e4f204645454420544f20434c41494d00000000000000000000000000000000600082015250565b61486c816140c2565b811461487757600080fd5b50565b61488381614100565b811461488e57600080fd5b50565b61489a8161410f565b81146148a557600080fd5b50565b6148b181614119565b81146148bc57600080fd5b50565b6148c881614129565b81146148d357600080fd5b5056fea2646970667358221220c90412019693d3304815491f71c7550e35fe990e4300ab01137a6606b53598db64736f6c63430008040033",
  "linkReferences": {},
  "deployedLinkReferences": {}
}