{
  "_format": "hh-sol-artifact-1",
  "contractName": "Captain",
  "sourceName": "contracts/Captain.sol",
  "abi": [
    {
      "anonymous": false,
      "inputs": [
        {
          "indexed": true,
          "internalType": "address",
          "name": "owner",
          "type": "address"
        },
        {
          "indexed": true,
          "internalType": "address",
          "name": "approved",
          "type": "address"
        },
        {
          "indexed": true,
          "internalType": "uint256",
          "name": "tokenId",
          "type": "uint256"
        }
      ],
      "name": "Approval",
      "type": "event"
    },
    {
      "anonymous": false,
      "inputs": [
        {
          "indexed": true,
          "internalType": "address",
          "name": "owner",
          "type": "address"
        },
        {
          "indexed": true,
          "internalType": "address",
          "name": "operator",
          "type": "address"
        },
        {
          "indexed": false,
          "internalType": "bool",
          "name": "approved",
          "type": "bool"
        }
      ],
      "name": "ApprovalForAll",
      "type": "event"
    },
    {
      "anonymous": false,
      "inputs": [
        {
          "indexed": false,
          "internalType": "uint8",
          "name": "version",
          "type": "uint8"
        }
      ],
      "name": "Initialized",
      "type": "event"
    },
    {
      "anonymous": false,
      "inputs": [
        {
          "indexed": false,
          "internalType": "uint256",
          "name": "tokenId",
          "type": "uint256"
        },
        {
          "indexed": false,
          "internalType": "address",
          "name": "from",
          "type": "address"
        },
        {
          "indexed": false,
          "internalType": "address",
          "name": "to",
          "type": "address"
        },
        {
          "indexed": false,
          "internalType": "uint256",
          "name": "price",
          "type": "uint256"
        }
      ],
      "name": "PurchaseEvent",
      "type": "event"
    },
    {
      "anonymous": false,
      "inputs": [
        {
          "indexed": false,
          "internalType": "uint256",
          "name": "tokenId",
          "type": "uint256"
        },
        {
          "indexed": false,
          "internalType": "bool",
          "name": "isForSale",
          "type": "bool"
        },
        {
          "indexed": false,
          "internalType": "uint256",
          "name": "price",
          "type": "uint256"
        }
      ],
      "name": "SaleToggle",
      "type": "event"
    },
    {
      "anonymous": false,
      "inputs": [
        {
          "indexed": true,
          "internalType": "address",
          "name": "from",
          "type": "address"
        },
        {
          "indexed": true,
          "internalType": "address",
          "name": "to",
          "type": "address"
        },
        {
          "indexed": true,
          "internalType": "uint256",
          "name": "tokenId",
          "type": "uint256"
        }
      ],
      "name": "Transfer",
      "type": "event"
    },
    {
      "inputs": [
        {
          "internalType": "uint256",
          "name": "",
          "type": "uint256"
        }
      ],
      "name": "allCaptainDetails",
      "outputs": [
        {
          "internalType": "uint256",
          "name": "tokenId",
          "type": "uint256"
        },
        {
          "internalType": "address",
          "name": "mintedBy",
          "type": "address"
        },
        {
          "internalType": "address",
          "name": "currentOwner",
          "type": "address"
        },
        {
          "internalType": "uint256",
          "name": "previousPrice",
          "type": "uint256"
        },
        {
          "internalType": "uint256",
          "name": "price",
          "type": "uint256"
        },
        {
          "internalType": "uint256",
          "name": "numberOfTransfers",
          "type": "uint256"
        },
        {
          "internalType": "bool",
          "name": "forSale",
          "type": "bool"
        },
        {
          "internalType": "uint256",
          "name": "ton",
          "type": "uint256"
        }
      ],
      "stateMutability": "view",
      "type": "function"
    },
    {
      "inputs": [
        {
          "internalType": "address",
          "name": "to",
          "type": "address"
        },
        {
          "internalType": "uint256",
          "name": "tokenId",
          "type": "uint256"
        }
      ],
      "name": "approve",
      "outputs": [],
      "stateMutability": "nonpayable",
      "type": "function"
    },
    {
      "inputs": [
        {
          "internalType": "address",
          "name": "owner",
          "type": "address"
        }
      ],
      "name": "balanceOf",
      "outputs": [
        {
          "internalType": "uint256",
          "name": "",
          "type": "uint256"
        }
      ],
      "stateMutability": "view",
      "type": "function"
    },
    {
      "inputs": [],
      "name": "baseExtension",
      "outputs": [
        {
          "internalType": "string",
          "name": "",
          "type": "string"
        }
      ],
      "stateMutability": "view",
      "type": "function"
    },
    {
      "inputs": [],
      "name": "baseURL",
      "outputs": [
        {
          "internalType": "string",
          "name": "",
          "type": "string"
        }
      ],
      "stateMutability": "view",
      "type": "function"
    },
    {
      "inputs": [
        {
          "internalType": "uint256",
          "name": "_tokenId",
          "type": "uint256"
        }
      ],
      "name": "buyToken",
      "outputs": [],
      "stateMutability": "payable",
      "type": "function"
    },
    {
      "inputs": [
        {
          "internalType": "string",
          "name": "url",
          "type": "string"
        }
      ],
      "name": "changeUrl",
      "outputs": [],
      "stateMutability": "nonpayable",
      "type": "function"
    },
    {
      "inputs": [
        {
          "internalType": "address",
          "name": "",
          "type": "address"
        }
      ],
      "name": "excludedList",
      "outputs": [
        {
          "internalType": "bool",
          "name": "",
          "type": "bool"
        }
      ],
      "stateMutability": "view",
      "type": "function"
    },
    {
      "inputs": [],
      "name": "getAllSaleTokens",
      "outputs": [
        {
          "internalType": "uint256[]",
          "name": "",
          "type": "uint256[]"
        }
      ],
      "stateMutability": "view",
      "type": "function"
    },
    {
      "inputs": [
        {
          "internalType": "uint256",
          "name": "tokenId",
          "type": "uint256"
        }
      ],
      "name": "getApproved",
      "outputs": [
        {
          "internalType": "address",
          "name": "",
          "type": "address"
        }
      ],
      "stateMutability": "view",
      "type": "function"
    },
    {
      "inputs": [
        {
          "internalType": "address",
          "name": "_contractOwner",
          "type": "address"
        },
        {
          "internalType": "address",
          "name": "_royaltyReceiver",
          "type": "address"
        },
        {
          "internalType": "uint256",
          "name": "_royaltyPercentage",
          "type": "uint256"
        },
        {
          "internalType": "uint256",
          "name": "_mintFeeAmount",
          "type": "uint256"
        },
        {
          "internalType": "string",
          "name": "_baseURL",
          "type": "string"
        },
        {
          "internalType": "bool",
          "name": "_openForPublic",
          "type": "bool"
        }
      ],
      "name": "initialize",
      "outputs": [],
      "stateMutability": "nonpayable",
      "type": "function"
    },
    {
      "inputs": [
        {
          "internalType": "address",
          "name": "owner",
          "type": "address"
        },
        {
          "internalType": "address",
          "name": "operator",
          "type": "address"
        }
      ],
      "name": "isApprovedForAll",
      "outputs": [
        {
          "internalType": "bool",
          "name": "",
          "type": "bool"
        }
      ],
      "stateMutability": "view",
      "type": "function"
    },
    {
      "inputs": [],
      "name": "maxSupply",
      "outputs": [
        {
          "internalType": "uint256",
          "name": "",
          "type": "uint256"
        }
      ],
      "stateMutability": "view",
      "type": "function"
    },
    {
      "inputs": [
        {
          "internalType": "uint256",
          "name": "numberOfToken",
          "type": "uint256"
        }
      ],
      "name": "mint",
      "outputs": [],
      "stateMutability": "payable",
      "type": "function"
    },
    {
      "inputs": [],
      "name": "mintFeeAmount",
      "outputs": [
        {
          "internalType": "uint256",
          "name": "",
          "type": "uint256"
        }
      ],
      "stateMutability": "view",
      "type": "function"
    },
    {
      "inputs": [],
      "name": "name",
      "outputs": [
        {
          "internalType": "string",
          "name": "",
          "type": "string"
        }
      ],
      "stateMutability": "view",
      "type": "function"
    },
    {
      "inputs": [],
      "name": "notRevealedUri",
      "outputs": [
        {
          "internalType": "string",
          "name": "",
          "type": "string"
        }
      ],
      "stateMutability": "view",
      "type": "function"
    },
    {
      "inputs": [],
      "name": "openForPublic",
      "outputs": [
        {
          "internalType": "bool",
          "name": "",
          "type": "bool"
        }
      ],
      "stateMutability": "view",
      "type": "function"
    },
    {
      "inputs": [
        {
          "internalType": "uint256",
          "name": "tokenId",
          "type": "uint256"
        }
      ],
      "name": "ownerOf",
      "outputs": [
        {
          "internalType": "address",
          "name": "",
          "type": "address"
        }
      ],
      "stateMutability": "view",
      "type": "function"
    },
    {
      "inputs": [],
      "name": "reveal",
      "outputs": [],
      "stateMutability": "nonpayable",
      "type": "function"
    },
    {
      "inputs": [],
      "name": "revealed",
      "outputs": [
        {
          "internalType": "bool",
          "name": "",
          "type": "bool"
        }
      ],
      "stateMutability": "view",
      "type": "function"
    },
    {
      "inputs": [],
      "name": "royaltyPercentage",
      "outputs": [
        {
          "internalType": "uint256",
          "name": "",
          "type": "uint256"
        }
      ],
      "stateMutability": "view",
      "type": "function"
    },
    {
      "inputs": [
        {
          "internalType": "address",
          "name": "from",
          "type": "address"
        },
        {
          "internalType": "address",
          "name": "to",
          "type": "address"
        },
        {
          "internalType": "uint256",
          "name": "tokenId",
          "type": "uint256"
        }
      ],
      "name": "safeTransferFrom",
      "outputs": [],
      "stateMutability": "nonpayable",
      "type": "function"
    },
    {
      "inputs": [
        {
          "internalType": "address",
          "name": "from",
          "type": "address"
        },
        {
          "internalType": "address",
          "name": "to",
          "type": "address"
        },
        {
          "internalType": "uint256",
          "name": "tokenId",
          "type": "uint256"
        },
        {
          "internalType": "bytes",
          "name": "_data",
          "type": "bytes"
        }
      ],
      "name": "safeTransferFrom",
      "outputs": [],
      "stateMutability": "nonpayable",
      "type": "function"
    },
    {
      "inputs": [
        {
          "internalType": "address",
          "name": "operator",
          "type": "address"
        },
        {
          "internalType": "bool",
          "name": "approved",
          "type": "bool"
        }
      ],
      "name": "setApprovalForAll",
      "outputs": [],
      "stateMutability": "nonpayable",
      "type": "function"
    },
    {
      "inputs": [
        {
          "internalType": "uint256",
          "name": "_tokenId",
          "type": "uint256"
        },
        {
          "internalType": "uint256",
          "name": "_newPrice",
          "type": "uint256"
        },
        {
          "internalType": "bool",
          "name": "isForSale",
          "type": "bool"
        }
      ],
      "name": "setPriceForSale",
      "outputs": [],
      "stateMutability": "nonpayable",
      "type": "function"
    },
    {
      "inputs": [
        {
          "internalType": "uint256",
          "name": "_tokenId",
          "type": "uint256"
        },
        {
          "internalType": "uint256",
          "name": "_newTon",
          "type": "uint256"
        }
      ],
      "name": "setTon",
      "outputs": [],
      "stateMutability": "nonpayable",
      "type": "function"
    },
    {
      "inputs": [
        {
          "internalType": "bytes4",
          "name": "interfaceId",
          "type": "bytes4"
        }
      ],
      "name": "supportsInterface",
      "outputs": [
        {
          "internalType": "bool",
          "name": "",
          "type": "bool"
        }
      ],
      "stateMutability": "view",
      "type": "function"
    },
    {
      "inputs": [],
      "name": "symbol",
      "outputs": [
        {
          "internalType": "string",
          "name": "",
          "type": "string"
        }
      ],
      "stateMutability": "view",
      "type": "function"
    },
    {
      "inputs": [
        {
          "internalType": "address",
          "name": "owner",
          "type": "address"
        },
        {
          "internalType": "uint256",
          "name": "index",
          "type": "uint256"
        }
      ],
      "name": "tokenOfOwnerByIndex",
      "outputs": [
        {
          "internalType": "uint256",
          "name": "",
          "type": "uint256"
        }
      ],
      "stateMutability": "view",
      "type": "function"
    },
    {
      "inputs": [
        {
          "internalType": "uint256",
          "name": "tokenId",
          "type": "uint256"
        }
      ],
      "name": "tokenURI",
      "outputs": [
        {
          "internalType": "string",
          "name": "",
          "type": "string"
        }
      ],
      "stateMutability": "view",
      "type": "function"
    },
    {
      "inputs": [],
      "name": "totalSupply",
      "outputs": [
        {
          "internalType": "uint256",
          "name": "",
          "type": "uint256"
        }
      ],
      "stateMutability": "view",
      "type": "function"
    },
    {
      "inputs": [
        {
          "internalType": "address",
          "name": "from",
          "type": "address"
        },
        {
          "internalType": "address",
          "name": "to",
          "type": "address"
        },
        {
          "internalType": "uint256",
          "name": "tokenId",
          "type": "uint256"
        }
      ],
      "name": "transferFrom",
      "outputs": [],
      "stateMutability": "nonpayable",
      "type": "function"
    }
  ],
  "bytecode": "0x608060405260405180602001604052806000815250609c90805190602001906200002b929190620000db565b5060405180608001604052806041815260200162005cc860419139609e90805190602001906200005d929190620000db565b506000609f60006101000a81548160ff0219169083151502179055506040518060400160405280600581526020017f2e6a736f6e00000000000000000000000000000000000000000000000000000081525060a09080519060200190620000c6929190620000db565b50348015620000d457600080fd5b50620001f0565b828054620000e9906200018b565b90600052602060002090601f0160209004810192826200010d576000855562000159565b82601f106200012857805160ff191683800117855562000159565b8280016001018555821562000159579182015b82811115620001585782518255916020019190600101906200013b565b5b5090506200016891906200016c565b5090565b5b80821115620001875760008160009055506001016200016d565b5090565b60006002820490506001821680620001a457607f821691505b60208210811415620001bb57620001ba620001c1565b5b50919050565b7f4e487b7100000000000000000000000000000000000000000000000000000000600052602260045260246000fd5b615ac880620002006000396000f3fe6080604052600436106101ee5760003560e01c80636352211e1161010d578063ac4732b9116100a0578063cc21096f1161006f578063cc21096f146106fc578063d5abeb0114610725578063e985e9c514610750578063ee1a51681461078d578063eff3c4e7146107b8576101ee565b8063ac4732b914610640578063b88d4fde1461066b578063c668286214610694578063c87b56dd146106bf576101ee565b806395d89b41116100dc57806395d89b41146105b9578063a0712d68146105e4578063a22cb46514610600578063a475b5dd14610629576101ee565b80636352211e146104eb57806370a08231146105285780637eb01a58146105655780638a71bb2d1461058e576101ee565b80632d296bf11161018557806342842e0e1161015457806342842e0e14610431578063518302271461045a5780635600d2fa146104855780635f823d28146104c2576101ee565b80632d296bf1146103695780632f745c591461038557806338b3e16b146103c257806340c84b0e14610406576101ee565b8063095ea7b3116101c1578063095ea7b3146102c357806318160ddd146102ec5780632324ba8e1461031757806323b872dd14610340576101ee565b806301ffc9a7146101f357806306fdde0314610230578063081812fc1461025b578063081c8c4414610298575b600080fd5b3480156101ff57600080fd5b5061021a600480360381019061021591906140e0565b6107e3565b604051610227919061492f565b60405180910390f35b34801561023c57600080fd5b506102456108c5565b6040516102529190614965565b60405180910390f35b34801561026757600080fd5b50610282600480360381019061027d9190614173565b610957565b60405161028f91906148a6565b60405180910390f35b3480156102a457600080fd5b506102ad6109dc565b6040516102ba9190614965565b60405180910390f35b3480156102cf57600080fd5b506102ea60048036038101906102e591906140a4565b610a6a565b005b3480156102f857600080fd5b50610301610b82565b60405161030e9190614d67565b60405180910390f35b34801561032357600080fd5b5061033e6004803603810190610339919061419c565b610b8f565b005b34801561034c57600080fd5b5061036760048036038101906103629190613efd565b610db1565b005b610383600480360381019061037e9190614173565b610e11565b005b34801561039157600080fd5b506103ac60048036038101906103a791906140a4565b611330565b6040516103b99190614d67565b60405180910390f35b3480156103ce57600080fd5b506103e960048036038101906103e49190614173565b6113d5565b6040516103fd989796959493929190614dc7565b60405180910390f35b34801561041257600080fd5b5061041b61146a565b6040516104289190614965565b60405180910390f35b34801561043d57600080fd5b5061045860048036038101906104539190613efd565b6114f8565b005b34801561046657600080fd5b5061046f611518565b60405161047c919061492f565b60405180910390f35b34801561049157600080fd5b506104ac60048036038101906104a79190613e98565b61152b565b6040516104b9919061492f565b60405180910390f35b3480156104ce57600080fd5b506104e960048036038101906104e49190614132565b61154b565b005b3480156104f757600080fd5b50610512600480360381019061050d9190614173565b6115f5565b60405161051f91906148a6565b60405180910390f35b34801561053457600080fd5b5061054f600480360381019061054a9190613e98565b6116a7565b60405161055c9190614d67565b60405180910390f35b34801561057157600080fd5b5061058c600480360381019061058791906141d8565b61175f565b005b34801561059a57600080fd5b506105a3611a91565b6040516105b09190614d67565b60405180910390f35b3480156105c557600080fd5b506105ce611a97565b6040516105db9190614965565b60405180910390f35b6105fe60048036038101906105f99190614173565b611b29565b005b34801561060c57600080fd5b5061062760048036038101906106229190614068565b611fde565b005b34801561063557600080fd5b5061063e611ff4565b005b34801561064c57600080fd5b50610655612011565b6040516106629190614d67565b60405180910390f35b34801561067757600080fd5b50610692600480360381019061068d9190613f4c565b612017565b005b3480156106a057600080fd5b506106a9612079565b6040516106b69190614965565b60405180910390f35b3480156106cb57600080fd5b506106e660048036038101906106e19190614173565b612107565b6040516106f39190614965565b60405180910390f35b34801561070857600080fd5b50610723600480360381019061071e9190613fc7565b612260565b005b34801561073157600080fd5b5061073a6124d7565b6040516107479190614d67565b60405180910390f35b34801561075c57600080fd5b5061077760048036038101906107729190613ec1565b6124dd565b604051610784919061492f565b60405180910390f35b34801561079957600080fd5b506107a2612571565b6040516107af919061490d565b60405180910390f35b3480156107c457600080fd5b506107cd6126b9565b6040516107da919061492f565b60405180910390f35b60007f80ac58cd000000000000000000000000000000000000000000000000000000007bffffffffffffffffffffffffffffffffffffffffffffffffffffffff1916827bffffffffffffffffffffffffffffffffffffffffffffffffffffffff191614806108ae57507f5b5e139f000000000000000000000000000000000000000000000000000000007bffffffffffffffffffffffffffffffffffffffffffffffffffffffff1916827bffffffffffffffffffffffffffffffffffffffffffffffffffffffff1916145b806108be57506108bd826126cc565b5b9050919050565b6060606580546108d49061517e565b80601f01602080910402602001604051908101604052809291908181526020018280546109009061517e565b801561094d5780601f106109225761010080835404028352916020019161094d565b820191906000526020600020905b81548152906001019060200180831161093057829003601f168201915b5050505050905090565b600061096282612736565b6109a1576040517f08c379a000000000000000000000000000000000000000000000000000000000815260040161099890614c07565b60405180910390fd5b6069600083815260200190815260200160002060009054906101000a900473ffffffffffffffffffffffffffffffffffffffff169050919050565b609e80546109e99061517e565b80601f0160208091040260200160405190810160405280929190818152602001828054610a159061517e565b8015610a625780601f10610a3757610100808354040283529160200191610a62565b820191906000526020600020905b815481529060010190602001808311610a4557829003601f168201915b505050505081565b6000610a75826115f5565b90508073ffffffffffffffffffffffffffffffffffffffff168373ffffffffffffffffffffffffffffffffffffffff161415610ae6576040517f08c379a0000000000000000000000000000000000000000000000000000000008152600401610add90614cc7565b60405180910390fd5b8073ffffffffffffffffffffffffffffffffffffffff16610b056127a2565b73ffffffffffffffffffffffffffffffffffffffff161480610b345750610b3381610b2e6127a2565b6124dd565b5b610b73576040517f08c379a0000000000000000000000000000000000000000000000000000000008152600401610b6a90614b07565b60405180910390fd5b610b7d83836127aa565b505050565b600060a580549050905090565b600060a2600084815260200190815260200160002060405180610100016040529081600082015481526020016001820160009054906101000a900473ffffffffffffffffffffffffffffffffffffffff1673ffffffffffffffffffffffffffffffffffffffff1673ffffffffffffffffffffffffffffffffffffffff1681526020016002820160009054906101000a900473ffffffffffffffffffffffffffffffffffffffff1673ffffffffffffffffffffffffffffffffffffffff1673ffffffffffffffffffffffffffffffffffffffff1681526020016003820154815260200160048201548152602001600582015481526020016006820160009054906101000a900460ff161515151581526020016007820154815250509050818160e00181815250508060a260008581526020019081526020016000206000820151816000015560208201518160010160006101000a81548173ffffffffffffffffffffffffffffffffffffffff021916908373ffffffffffffffffffffffffffffffffffffffff16021790555060408201518160020160006101000a81548173ffffffffffffffffffffffffffffffffffffffff021916908373ffffffffffffffffffffffffffffffffffffffff160217905550606082015181600301556080820151816004015560a0820151816005015560c08201518160060160006101000a81548160ff02191690831515021790555060e08201518160070155905050505050565b610dc2610dbc6127a2565b82612863565b610e01576040517f08c379a0000000000000000000000000000000000000000000000000000000008152600401610df890614ce7565b60405180910390fd5b610e0c838383612941565b505050565b610e1a81612736565b610e59576040517f08c379a0000000000000000000000000000000000000000000000000000000008152600401610e5090614987565b60405180910390fd5b6000610e64826115f5565b9050600073ffffffffffffffffffffffffffffffffffffffff168173ffffffffffffffffffffffffffffffffffffffff161415610ed6576040517f08c379a0000000000000000000000000000000000000000000000000000000008152600401610ecd90614b87565b60405180910390fd5b3373ffffffffffffffffffffffffffffffffffffffff168173ffffffffffffffffffffffffffffffffffffffff161415610f45576040517f08c379a0000000000000000000000000000000000000000000000000000000008152600401610f3c90614d27565b60405180910390fd5b600060a2600084815260200190815260200160002060405180610100016040529081600082015481526020016001820160009054906101000a900473ffffffffffffffffffffffffffffffffffffffff1673ffffffffffffffffffffffffffffffffffffffff1673ffffffffffffffffffffffffffffffffffffffff1681526020016002820160009054906101000a900473ffffffffffffffffffffffffffffffffffffffff1673ffffffffffffffffffffffffffffffffffffffff1673ffffffffffffffffffffffffffffffffffffffff1681526020016003820154815260200160048201548152602001600582015481526020016006820160009054906101000a900460ff16151515158152602001600782015481525050905080608001513410156110a8576040517f08c379a000000000000000000000000000000000000000000000000000000000815260040161109f90614c87565b60405180910390fd5b8060c001516110ec576040517f08c379a00000000000000000000000000000000000000000000000000000000081526004016110e390614c27565b60405180910390fd5b60003490506000606460995483611103919061501b565b61110d9190614fea565b90506000818361111d9190615075565b9050609860009054906101000a900473ffffffffffffffffffffffffffffffffffffffff1673ffffffffffffffffffffffffffffffffffffffff166108fc839081150290604051600060405180830381858888f19350505050158015611187573d6000803e3d6000fd5b50836040015173ffffffffffffffffffffffffffffffffffffffff166108fc829081150290604051600060405180830381858888f193505050501580156111d2573d6000803e3d6000fd5b5083608001518460600181815250508360a260008881526020019081526020016000206000820151816000015560208201518160010160006101000a81548173ffffffffffffffffffffffffffffffffffffffff021916908373ffffffffffffffffffffffffffffffffffffffff16021790555060408201518160020160006101000a81548173ffffffffffffffffffffffffffffffffffffffff021916908373ffffffffffffffffffffffffffffffffffffffff160217905550606082015181600301556080820151816004015560a0820151816005015560c08201518160060160006101000a81548160ff02191690831515021790555060e082015181600701559050506112e3853388612941565b7fdc84c3c75a393011959e6391215e5b01982de6ad00f83b8b26ac7c52a5844b228685604001513387608001516040516113209493929190614d82565b60405180910390a1505050505050565b600061133b836116a7565b821061137c576040517f08c379a000000000000000000000000000000000000000000000000000000000815260040161137390614ae7565b60405180910390fd5b60a360008473ffffffffffffffffffffffffffffffffffffffff1673ffffffffffffffffffffffffffffffffffffffff168152602001908152602001600020600083815260200190815260200160002054905092915050565b60a26020528060005260406000206000915090508060000154908060010160009054906101000a900473ffffffffffffffffffffffffffffffffffffffff16908060020160009054906101000a900473ffffffffffffffffffffffffffffffffffffffff16908060030154908060040154908060050154908060060160009054906101000a900460ff16908060070154905088565b609c80546114779061517e565b80601f01602080910402602001604051908101604052809291908181526020018280546114a39061517e565b80156114f05780601f106114c5576101008083540402835291602001916114f0565b820191906000526020600020905b8154815290600101906020018083116114d357829003601f168201915b505050505081565b61151383838360405180602001604052806000815250612017565b505050565b609f60009054906101000a900460ff1681565b609a6020528060005260406000206000915054906101000a900460ff1681565b609760009054906101000a900473ffffffffffffffffffffffffffffffffffffffff1673ffffffffffffffffffffffffffffffffffffffff163373ffffffffffffffffffffffffffffffffffffffff16146115db576040517f08c379a00000000000000000000000000000000000000000000000000000000081526004016115d2906149c7565b60405180910390fd5b80609c90805190602001906115f1929190613cbc565b5050565b6000806067600084815260200190815260200160002060009054906101000a900473ffffffffffffffffffffffffffffffffffffffff169050600073ffffffffffffffffffffffffffffffffffffffff168173ffffffffffffffffffffffffffffffffffffffff16141561169e576040517f08c379a000000000000000000000000000000000000000000000000000000000815260040161169590614b47565b60405180910390fd5b80915050919050565b60008073ffffffffffffffffffffffffffffffffffffffff168273ffffffffffffffffffffffffffffffffffffffff161415611718576040517f08c379a000000000000000000000000000000000000000000000000000000000815260040161170f90614b27565b60405180910390fd5b606860008373ffffffffffffffffffffffffffffffffffffffff1673ffffffffffffffffffffffffffffffffffffffff168152602001908152602001600020549050919050565b61176883612736565b6117a7576040517f08c379a000000000000000000000000000000000000000000000000000000000815260040161179e90614c47565b60405180910390fd5b60006117b2846115f5565b90503373ffffffffffffffffffffffffffffffffffffffff168173ffffffffffffffffffffffffffffffffffffffff1614611822576040517f08c379a000000000000000000000000000000000000000000000000000000000815260040161181990614d47565b60405180910390fd5b600060a2600086815260200190815260200160002060405180610100016040529081600082015481526020016001820160009054906101000a900473ffffffffffffffffffffffffffffffffffffffff1673ffffffffffffffffffffffffffffffffffffffff1673ffffffffffffffffffffffffffffffffffffffff1681526020016002820160009054906101000a900473ffffffffffffffffffffffffffffffffffffffff1673ffffffffffffffffffffffffffffffffffffffff1673ffffffffffffffffffffffffffffffffffffffff1681526020016003820154815260200160048201548152602001600582015481526020016006820160009054906101000a900460ff16151515158152602001600782015481525050905083816080018181525050828160c00190151590811515815250508060a260008781526020019081526020016000206000820151816000015560208201518160010160006101000a81548173ffffffffffffffffffffffffffffffffffffffff021916908373ffffffffffffffffffffffffffffffffffffffff16021790555060408201518160020160006101000a81548173ffffffffffffffffffffffffffffffffffffffff021916908373ffffffffffffffffffffffffffffffffffffffff160217905550606082015181600301556080820151816004015560a0820151816005015560c08201518160060160006101000a81548160ff02191690831515021790555060e082015181600701559050507f64b12cff1b4037cf4ed0ff891d2f6f0ee06c004d6bac81d0e718c447a93fe16e858486604051611a8293929190614e45565b60405180910390a15050505050565b60995481565b606060668054611aa69061517e565b80601f0160208091040260200160405190810160405280929190818152602001828054611ad29061517e565b8015611b1f5780601f10611af457610100808354040283529160200191611b1f565b820191906000526020600020905b815481529060010190602001808311611b0257829003601f168201915b5050505050905090565b60011515609d60009054906101000a900460ff16151514611b7f576040517f08c379a0000000000000000000000000000000000000000000000000000000008152600401611b7690614aa7565b60405180910390fd5b600073ffffffffffffffffffffffffffffffffffffffff163373ffffffffffffffffffffffffffffffffffffffff161415611bef576040517f08c379a0000000000000000000000000000000000000000000000000000000008152600401611be690614ca7565b60405180910390fd5b6127108160a580549050611c039190614f94565b1115611c44576040517f08c379a0000000000000000000000000000000000000000000000000000000008152600401611c3b90614a47565b60405180910390fd5b60008111611c87576040517f08c379a0000000000000000000000000000000000000000000000000000000008152600401611c7e90614b67565b60405180910390fd5b600c811115611ccb576040517f08c379a0000000000000000000000000000000000000000000000000000000008152600401611cc290614be7565b60405180910390fd5b6000801515609a60003373ffffffffffffffffffffffffffffffffffffffff1673ffffffffffffffffffffffffffffffffffffffff16815260200190815260200160002060009054906101000a900460ff1615151415611de55781609b54611d33919061501b565b9050803414611d77576040517f08c379a0000000000000000000000000000000000000000000000000000000008152600401611d6e906149a7565b60405180910390fd5b609860009054906101000a900473ffffffffffffffffffffffffffffffffffffffff1673ffffffffffffffffffffffffffffffffffffffff166108fc349081150290604051600060405180830381858888f19350505050158015611ddf573d6000803e3d6000fd5b50611e2d565b3373ffffffffffffffffffffffffffffffffffffffff166108fc349081150290604051600060405180830381858888f19350505050158015611e2b573d6000803e3d6000fd5b505b6000600190505b828111611fd957611e4560a1612ba8565b6000611e5160a1612bbe565b9050611e5d3382612bcc565b60006040518061010001604052808381526020013373ffffffffffffffffffffffffffffffffffffffff1681526020013373ffffffffffffffffffffffffffffffffffffffff1681526020016000815260200185815260200160008152602001600015158152602001606481525090508060a260008481526020019081526020016000206000820151816000015560208201518160010160006101000a81548173ffffffffffffffffffffffffffffffffffffffff021916908373ffffffffffffffffffffffffffffffffffffffff16021790555060408201518160020160006101000a81548173ffffffffffffffffffffffffffffffffffffffff021916908373ffffffffffffffffffffffffffffffffffffffff160217905550606082015181600301556080820151816004015560a0820151816005015560c08201518160060160006101000a81548160ff02191690831515021790555060e0820151816007015590505050508080611fd1906151e1565b915050611e34565b505050565b611ff0611fe96127a2565b8383612bea565b5050565b6001609f60006101000a81548160ff021916908315150217905550565b609b5481565b6120286120226127a2565b83612863565b612067576040517f08c379a000000000000000000000000000000000000000000000000000000000815260040161205e90614ce7565b60405180910390fd5b61207384848484612d57565b50505050565b60a080546120869061517e565b80601f01602080910402602001604051908101604052809291908181526020018280546120b29061517e565b80156120ff5780601f106120d4576101008083540402835291602001916120ff565b820191906000526020600020905b8154815290600101906020018083116120e257829003601f168201915b505050505081565b606061211282612736565b612151576040517f08c379a000000000000000000000000000000000000000000000000000000000815260040161214890614c67565b60405180910390fd5b60001515609f60009054906101000a900460ff16151514156121ff57609e805461217a9061517e565b80601f01602080910402602001604051908101604052809291908181526020018280546121a69061517e565b80156121f35780601f106121c8576101008083540402835291602001916121f3565b820191906000526020600020905b8154815290600101906020018083116121d657829003601f168201915b5050505050905061225b565b6000612209612db3565b905060008151116122295760405180602001604052806000815250612257565b8061223384612e45565b60a06040516020016122479392919061486a565b6040516020818303038152906040525b9150505b919050565b600061226c6001612ff2565b90508015612290576001600060016101000a81548160ff0219169083151502179055505b6123046040518060400160405280600781526020017f4361707461696e000000000000000000000000000000000000000000000000008152506040518060400160405280600781526020017f4341505441494e000000000000000000000000000000000000000000000000008152506130e2565b8460998190555086609760006101000a81548173ffffffffffffffffffffffffffffffffffffffff021916908373ffffffffffffffffffffffffffffffffffffffff16021790555085609860006101000a81548173ffffffffffffffffffffffffffffffffffffffff021916908373ffffffffffffffffffffffffffffffffffffffff16021790555083609b819055506001609a60008973ffffffffffffffffffffffffffffffffffffffff1673ffffffffffffffffffffffffffffffffffffffff16815260200190815260200160002060006101000a81548160ff0219169083151502179055506001609a60008873ffffffffffffffffffffffffffffffffffffffff1673ffffffffffffffffffffffffffffffffffffffff16815260200190815260200160002060006101000a81548160ff02191690831515021790555082609c908051906020019061245a929190613cbc565b5081609d60006101000a81548160ff02191690831515021790555080156124ce5760008060016101000a81548160ff0219169083151502179055507f7f26b83ff96e1f2b6a682f133852f6798a09c465da95921460cefb384740249860016040516124c5919061494a565b60405180910390a15b50505050505050565b61271081565b6000606a60008473ffffffffffffffffffffffffffffffffffffffff1673ffffffffffffffffffffffffffffffffffffffff16815260200190815260200160002060008373ffffffffffffffffffffffffffffffffffffffff1673ffffffffffffffffffffffffffffffffffffffff16815260200190815260200160002060009054906101000a900460ff16905092915050565b6060600061257d610b82565b905060008167ffffffffffffffff8111156125c1577f4e487b7100000000000000000000000000000000000000000000000000000000600052604160045260246000fd5b6040519080825280602002602001820160405280156125ef5781602001602082028036833780820191505090505b509050600080600190505b8381116126af576001151560a2600083815260200190815260200160002060060160009054906101000a900460ff161515141561269c5760a2600082815260200190815260200160002060000154838381518110612681577f4e487b7100000000000000000000000000000000000000000000000000000000600052603260045260246000fd5b6020026020010181815250508180612698906151e1565b9250505b80806126a7906151e1565b9150506125fa565b5081935050505090565b609d60009054906101000a900460ff1681565b60007f01ffc9a7000000000000000000000000000000000000000000000000000000007bffffffffffffffffffffffffffffffffffffffffffffffffffffffff1916827bffffffffffffffffffffffffffffffffffffffffffffffffffffffff1916149050919050565b60008073ffffffffffffffffffffffffffffffffffffffff166067600084815260200190815260200160002060009054906101000a900473ffffffffffffffffffffffffffffffffffffffff1673ffffffffffffffffffffffffffffffffffffffff1614159050919050565b600033905090565b816069600083815260200190815260200160002060006101000a81548173ffffffffffffffffffffffffffffffffffffffff021916908373ffffffffffffffffffffffffffffffffffffffff160217905550808273ffffffffffffffffffffffffffffffffffffffff1661281d836115f5565b73ffffffffffffffffffffffffffffffffffffffff167f8c5be1e5ebec7d5bd14f71427d1e84f3dd0314c0f7b2291e5b200ac8c7c3b92560405160405180910390a45050565b600061286e82612736565b6128ad576040517f08c379a00000000000000000000000000000000000000000000000000000000081526004016128a490614ac7565b60405180910390fd5b60006128b8836115f5565b90508073ffffffffffffffffffffffffffffffffffffffff168473ffffffffffffffffffffffffffffffffffffffff1614806128fa57506128f981856124dd565b5b8061293857508373ffffffffffffffffffffffffffffffffffffffff1661292084610957565b73ffffffffffffffffffffffffffffffffffffffff16145b91505092915050565b8273ffffffffffffffffffffffffffffffffffffffff16612961826115f5565b73ffffffffffffffffffffffffffffffffffffffff16146129b7576040517f08c379a00000000000000000000000000000000000000000000000000000000081526004016129ae90614a07565b60405180910390fd5b600073ffffffffffffffffffffffffffffffffffffffff168273ffffffffffffffffffffffffffffffffffffffff161415612a27576040517f08c379a0000000000000000000000000000000000000000000000000000000008152600401612a1e90614a67565b60405180910390fd5b612a3283838361313f565b612a3d6000826127aa565b6001606860008573ffffffffffffffffffffffffffffffffffffffff1673ffffffffffffffffffffffffffffffffffffffff1681526020019081526020016000206000828254612a8d9190615075565b925050819055506001606860008473ffffffffffffffffffffffffffffffffffffffff1673ffffffffffffffffffffffffffffffffffffffff1681526020019081526020016000206000828254612ae49190614f94565b92505081905550816067600083815260200190815260200160002060006101000a81548173ffffffffffffffffffffffffffffffffffffffff021916908373ffffffffffffffffffffffffffffffffffffffff160217905550808273ffffffffffffffffffffffffffffffffffffffff168473ffffffffffffffffffffffffffffffffffffffff167fddf252ad1be2c89b69c2b068fc378daa952ba7f163c4a11628f55a4df523b3ef60405160405180910390a4612ba38383836134ca565b505050565b6001816000016000828254019250508190555050565b600081600001549050919050565b612be68282604051806020016040528060008152506134cf565b5050565b8173ffffffffffffffffffffffffffffffffffffffff168373ffffffffffffffffffffffffffffffffffffffff161415612c59576040517f08c379a0000000000000000000000000000000000000000000000000000000008152600401612c5090614a87565b60405180910390fd5b80606a60008573ffffffffffffffffffffffffffffffffffffffff1673ffffffffffffffffffffffffffffffffffffffff16815260200190815260200160002060008473ffffffffffffffffffffffffffffffffffffffff1673ffffffffffffffffffffffffffffffffffffffff16815260200190815260200160002060006101000a81548160ff0219169083151502179055508173ffffffffffffffffffffffffffffffffffffffff168373ffffffffffffffffffffffffffffffffffffffff167f17307eab39ab6107e8899845ad3d59bd9653f200f220920489ca2b5937696c3183604051612d4a919061492f565b60405180910390a3505050565b612d62848484612941565b612d6e8484848461352a565b612dad576040517f08c379a0000000000000000000000000000000000000000000000000000000008152600401612da4906149e7565b60405180910390fd5b50505050565b6060609c8054612dc29061517e565b80601f0160208091040260200160405190810160405280929190818152602001828054612dee9061517e565b8015612e3b5780601f10612e1057610100808354040283529160200191612e3b565b820191906000526020600020905b815481529060010190602001808311612e1e57829003601f168201915b5050505050905090565b60606000821415612e8d576040518060400160405280600181526020017f30000000000000000000000000000000000000000000000000000000000000008152509050612fed565b600082905060005b60008214612ebf578080612ea8906151e1565b915050600a82612eb89190614fea565b9150612e95565b60008167ffffffffffffffff811115612f01577f4e487b7100000000000000000000000000000000000000000000000000000000600052604160045260246000fd5b6040519080825280601f01601f191660200182016040528015612f335781602001600182028036833780820191505090505b5090505b60008514612fe657600182612f4c9190615075565b9150600a85612f5b919061522a565b6030612f679190614f94565b60f81b818381518110612fa3577f4e487b7100000000000000000000000000000000000000000000000000000000600052603260045260246000fd5b60200101907effffffffffffffffffffffffffffffffffffffffffffffffffffffffffffff1916908160001a905350600a85612fdf9190614fea565b9450612f37565b8093505050505b919050565b60008060019054906101000a900460ff16156130695760018260ff16148015613021575061301f306136c1565b155b613060576040517f08c379a000000000000000000000000000000000000000000000000000000000815260040161305790614ba7565b60405180910390fd5b600090506130dd565b8160ff1660008054906101000a900460ff1660ff16106130be576040517f08c379a00000000000000000000000000000000000000000000000000000000081526004016130b590614ba7565b60405180910390fd5b816000806101000a81548160ff021916908360ff160217905550600190505b919050565b600060019054906101000a900460ff16613131576040517f08c379a000000000000000000000000000000000000000000000000000000000815260040161312890614d07565b60405180910390fd5b61313b82826136e4565b5050565b61314a838383613765565b600060a2600083815260200190815260200160002060405180610100016040529081600082015481526020016001820160009054906101000a900473ffffffffffffffffffffffffffffffffffffffff1673ffffffffffffffffffffffffffffffffffffffff1673ffffffffffffffffffffffffffffffffffffffff1681526020016002820160009054906101000a900473ffffffffffffffffffffffffffffffffffffffff1673ffffffffffffffffffffffffffffffffffffffff1673ffffffffffffffffffffffffffffffffffffffff1681526020016003820154815260200160048201548152602001600582015481526020016006820160009054906101000a900460ff16151515158152602001600782015481525050905082816040019073ffffffffffffffffffffffffffffffffffffffff16908173ffffffffffffffffffffffffffffffffffffffff168152505060018160a0018181516132b19190614f94565b9150818152505060008160c00190151590811515815250508060a260008481526020019081526020016000206000820151816000015560208201518160010160006101000a81548173ffffffffffffffffffffffffffffffffffffffff021916908373ffffffffffffffffffffffffffffffffffffffff16021790555060408201518160020160006101000a81548173ffffffffffffffffffffffffffffffffffffffff021916908373ffffffffffffffffffffffffffffffffffffffff160217905550606082015181600301556080820151816004015560a0820151816005015560c08201518160060160006101000a81548160ff02191690831515021790555060e08201518160070155905050600073ffffffffffffffffffffffffffffffffffffffff168473ffffffffffffffffffffffffffffffffffffffff161415613403576133fe8261376a565b613442565b8273ffffffffffffffffffffffffffffffffffffffff168473ffffffffffffffffffffffffffffffffffffffff16146134415761344084836137b3565b5b5b600073ffffffffffffffffffffffffffffffffffffffff168373ffffffffffffffffffffffffffffffffffffffff1614156134855761348082613920565b6134c4565b8373ffffffffffffffffffffffffffffffffffffffff168373ffffffffffffffffffffffffffffffffffffffff16146134c3576134c28383613a63565b5b5b50505050565b505050565b6134d98383613ae2565b6134e6600084848461352a565b613525576040517f08c379a000000000000000000000000000000000000000000000000000000000815260040161351c906149e7565b60405180910390fd5b505050565b600061354b8473ffffffffffffffffffffffffffffffffffffffff166136c1565b156136b4578373ffffffffffffffffffffffffffffffffffffffff1663150b7a026135746127a2565b8786866040518563ffffffff1660e01b815260040161359694939291906148c1565b602060405180830381600087803b1580156135b057600080fd5b505af19250505080156135e157506040513d601f19601f820116820180604052508101906135de9190614109565b60015b613664573d8060008114613611576040519150601f19603f3d011682016040523d82523d6000602084013e613616565b606091505b5060008151141561365c576040517f08c379a0000000000000000000000000000000000000000000000000000000008152600401613653906149e7565b60405180910390fd5b805181602001fd5b63150b7a0260e01b7bffffffffffffffffffffffffffffffffffffffffffffffffffffffff1916817bffffffffffffffffffffffffffffffffffffffffffffffffffffffff1916149150506136b9565b600190505b949350505050565b6000808273ffffffffffffffffffffffffffffffffffffffff163b119050919050565b600060019054906101000a900460ff16613733576040517f08c379a000000000000000000000000000000000000000000000000000000000815260040161372a90614d07565b60405180910390fd5b8160659080519060200190613749929190613cbc565b508060669080519060200190613760929190613cbc565b505050565b505050565b60a58054905060a660008381526020019081526020016000208190555060a581908060018154018082558091505060019003906000526020600020016000909190919091505550565b600060016137c0846116a7565b6137ca9190615075565b9050600060a460008481526020019081526020016000205490508181146138af57600060a360008673ffffffffffffffffffffffffffffffffffffffff1673ffffffffffffffffffffffffffffffffffffffff16815260200190815260200160002060008481526020019081526020016000205490508060a360008773ffffffffffffffffffffffffffffffffffffffff1673ffffffffffffffffffffffffffffffffffffffff1681526020019081526020016000206000848152602001908152602001600020819055508160a4600083815260200190815260200160002081905550505b60a460008481526020019081526020016000206000905560a360008573ffffffffffffffffffffffffffffffffffffffff1673ffffffffffffffffffffffffffffffffffffffff16815260200190815260200160002060008381526020019081526020016000206000905550505050565b6000600160a5805490506139349190615075565b9050600060a66000848152602001908152602001600020549050600060a5838154811061398a577f4e487b7100000000000000000000000000000000000000000000000000000000600052603260045260246000fd5b906000526020600020015490508060a583815481106139d2577f4e487b7100000000000000000000000000000000000000000000000000000000600052603260045260246000fd5b90600052602060002001819055508160a660008381526020019081526020016000208190555060a660008581526020019081526020016000206000905560a5805480613a47577f4e487b7100000000000000000000000000000000000000000000000000000000600052603160045260246000fd5b6001900381819060005260206000200160009055905550505050565b6000613a6e836116a7565b90508160a360008573ffffffffffffffffffffffffffffffffffffffff1673ffffffffffffffffffffffffffffffffffffffff1681526020019081526020016000206000838152602001908152602001600020819055508060a4600084815260200190815260200160002081905550505050565b600073ffffffffffffffffffffffffffffffffffffffff168273ffffffffffffffffffffffffffffffffffffffff161415613b52576040517f08c379a0000000000000000000000000000000000000000000000000000000008152600401613b4990614bc7565b60405180910390fd5b613b5b81612736565b15613b9b576040517f08c379a0000000000000000000000000000000000000000000000000000000008152600401613b9290614a27565b60405180910390fd5b613ba76000838361313f565b6001606860008473ffffffffffffffffffffffffffffffffffffffff1673ffffffffffffffffffffffffffffffffffffffff1681526020019081526020016000206000828254613bf79190614f94565b92505081905550816067600083815260200190815260200160002060006101000a81548173ffffffffffffffffffffffffffffffffffffffff021916908373ffffffffffffffffffffffffffffffffffffffff160217905550808273ffffffffffffffffffffffffffffffffffffffff16600073ffffffffffffffffffffffffffffffffffffffff167fddf252ad1be2c89b69c2b068fc378daa952ba7f163c4a11628f55a4df523b3ef60405160405180910390a4613cb8600083836134ca565b5050565b828054613cc89061517e565b90600052602060002090601f016020900481019282613cea5760008555613d31565b82601f10613d0357805160ff1916838001178555613d31565b82800160010185558215613d31579182015b82811115613d30578251825591602001919060010190613d15565b5b509050613d3e9190613d42565b5090565b5b80821115613d5b576000816000905550600101613d43565b5090565b6000613d72613d6d84614ea1565b614e7c565b905082815260208101848484011115613d8a57600080fd5b613d9584828561513c565b509392505050565b6000613db0613dab84614ed2565b614e7c565b905082815260208101848484011115613dc857600080fd5b613dd384828561513c565b509392505050565b600081359050613dea81615a36565b92915050565b600081359050613dff81615a4d565b92915050565b600081359050613e1481615a64565b92915050565b600081519050613e2981615a64565b92915050565b600082601f830112613e4057600080fd5b8135613e50848260208601613d5f565b91505092915050565b600082601f830112613e6a57600080fd5b8135613e7a848260208601613d9d565b91505092915050565b600081359050613e9281615a7b565b92915050565b600060208284031215613eaa57600080fd5b6000613eb884828501613ddb565b91505092915050565b60008060408385031215613ed457600080fd5b6000613ee285828601613ddb565b9250506020613ef385828601613ddb565b9150509250929050565b600080600060608486031215613f1257600080fd5b6000613f2086828701613ddb565b9350506020613f3186828701613ddb565b9250506040613f4286828701613e83565b9150509250925092565b60008060008060808587031215613f6257600080fd5b6000613f7087828801613ddb565b9450506020613f8187828801613ddb565b9350506040613f9287828801613e83565b925050606085013567ffffffffffffffff811115613faf57600080fd5b613fbb87828801613e2f565b91505092959194509250565b60008060008060008060c08789031215613fe057600080fd5b6000613fee89828a01613ddb565b9650506020613fff89828a01613ddb565b955050604061401089828a01613e83565b945050606061402189828a01613e83565b935050608087013567ffffffffffffffff81111561403e57600080fd5b61404a89828a01613e59565b92505060a061405b89828a01613df0565b9150509295509295509295565b6000806040838503121561407b57600080fd5b600061408985828601613ddb565b925050602061409a85828601613df0565b9150509250929050565b600080604083850312156140b757600080fd5b60006140c585828601613ddb565b92505060206140d685828601613e83565b9150509250929050565b6000602082840312156140f257600080fd5b600061410084828501613e05565b91505092915050565b60006020828403121561411b57600080fd5b600061412984828501613e1a565b91505092915050565b60006020828403121561414457600080fd5b600082013567ffffffffffffffff81111561415e57600080fd5b61416a84828501613e59565b91505092915050565b60006020828403121561418557600080fd5b600061419384828501613e83565b91505092915050565b600080604083850312156141af57600080fd5b60006141bd85828601613e83565b92505060206141ce85828601613e83565b9150509250929050565b6000806000606084860312156141ed57600080fd5b60006141fb86828701613e83565b935050602061420c86828701613e83565b925050604061421d86828701613df0565b9150509250925092565b6000614233838361484c565b60208301905092915050565b614248816150a9565b82525050565b600061425982614f28565b6142638185614f56565b935061426e83614f03565b8060005b8381101561429f5781516142868882614227565b975061429183614f49565b925050600181019050614272565b5085935050505092915050565b6142b5816150bb565b82525050565b60006142c682614f33565b6142d08185614f67565b93506142e081856020860161514b565b6142e981615317565b840191505092915050565b6142fd8161512a565b82525050565b600061430e82614f3e565b6143188185614f78565b935061432881856020860161514b565b61433181615317565b840191505092915050565b600061434782614f3e565b6143518185614f89565b935061436181856020860161514b565b80840191505092915050565b6000815461437a8161517e565b6143848186614f89565b9450600182166000811461439f57600181146143b0576143e3565b60ff198316865281860193506143e3565b6143b985614f13565b60005b838110156143db578154818901526001820191506020810190506143bc565b838801955050505b50505092915050565b60006143f9601183614f78565b915061440482615328565b602082019050919050565b600061441c600e83614f78565b915061442782615351565b602082019050919050565b600061443f600a83614f78565b915061444a8261537a565b602082019050919050565b6000614462603283614f78565b915061446d826153a3565b604082019050919050565b6000614485602583614f78565b9150614490826153f2565b604082019050919050565b60006144a8601c83614f78565b91506144b382615441565b602082019050919050565b60006144cb600a83614f78565b91506144d68261546a565b602082019050919050565b60006144ee602483614f78565b91506144f982615493565b604082019050919050565b6000614511601983614f78565b915061451c826154e2565b602082019050919050565b6000614534600883614f78565b915061453f8261550b565b602082019050919050565b6000614557602c83614f78565b915061456282615534565b604082019050919050565b600061457a600d83614f78565b915061458582615583565b602082019050919050565b600061459d603883614f78565b91506145a8826155ac565b604082019050919050565b60006145c0602a83614f78565b91506145cb826155fb565b604082019050919050565b60006145e3602983614f78565b91506145ee8261564a565b604082019050919050565b6000614606600583614f78565b915061461182615699565b602082019050919050565b6000614629601883614f78565b9150614634826156c2565b602082019050919050565b600061464c602e83614f78565b9150614657826156eb565b604082019050919050565b600061466f602083614f78565b915061467a8261573a565b602082019050919050565b6000614692600683614f78565b915061469d82615763565b602082019050919050565b60006146b5602c83614f78565b91506146c08261578c565b604082019050919050565b60006146d8600f83614f78565b91506146e3826157db565b602082019050919050565b60006146fb600f83614f78565b915061470682615804565b602082019050919050565b600061471e602f83614f78565b91506147298261582d565b604082019050919050565b6000614741601a83614f78565b915061474c8261587c565b602082019050919050565b6000614764601883614f78565b915061476f826158a5565b602082019050919050565b6000614787602183614f78565b9150614792826158ce565b604082019050919050565b60006147aa603183614f78565b91506147b58261591d565b604082019050919050565b60006147cd602b83614f78565b91506147d88261596c565b604082019050919050565b60006147f0601883614f78565b91506147fb826159bb565b602082019050919050565b6000614813600983614f78565b915061481e826159e4565b602082019050919050565b6000614836600183614f89565b915061484182615a0d565b600182019050919050565b61485581615113565b82525050565b61486481615113565b82525050565b6000614876828661433c565b915061488182614829565b915061488d828561433c565b9150614899828461436d565b9150819050949350505050565b60006020820190506148bb600083018461423f565b92915050565b60006080820190506148d6600083018761423f565b6148e3602083018661423f565b6148f0604083018561485b565b818103606083015261490281846142bb565b905095945050505050565b60006020820190508181036000830152614927818461424e565b905092915050565b600060208201905061494460008301846142ac565b92915050565b600060208201905061495f60008301846142f4565b92915050565b6000602082019050818103600083015261497f8184614303565b905092915050565b600060208201905081810360008301526149a0816143ec565b9050919050565b600060208201905081810360008301526149c08161440f565b9050919050565b600060208201905081810360008301526149e081614432565b9050919050565b60006020820190508181036000830152614a0081614455565b9050919050565b60006020820190508181036000830152614a2081614478565b9050919050565b60006020820190508181036000830152614a408161449b565b9050919050565b60006020820190508181036000830152614a60816144be565b9050919050565b60006020820190508181036000830152614a80816144e1565b9050919050565b60006020820190508181036000830152614aa081614504565b9050919050565b60006020820190508181036000830152614ac081614527565b9050919050565b60006020820190508181036000830152614ae08161454a565b9050919050565b60006020820190508181036000830152614b008161456d565b9050919050565b60006020820190508181036000830152614b2081614590565b9050919050565b60006020820190508181036000830152614b40816145b3565b9050919050565b60006020820190508181036000830152614b60816145d6565b9050919050565b60006020820190508181036000830152614b80816145f9565b9050919050565b60006020820190508181036000830152614ba08161461c565b9050919050565b60006020820190508181036000830152614bc08161463f565b9050919050565b60006020820190508181036000830152614be081614662565b9050919050565b60006020820190508181036000830152614c0081614685565b9050919050565b60006020820190508181036000830152614c20816146a8565b9050919050565b60006020820190508181036000830152614c40816146cb565b9050919050565b60006020820190508181036000830152614c60816146ee565b9050919050565b60006020820190508181036000830152614c8081614711565b9050919050565b60006020820190508181036000830152614ca081614734565b9050919050565b60006020820190508181036000830152614cc081614757565b9050919050565b60006020820190508181036000830152614ce08161477a565b9050919050565b60006020820190508181036000830152614d008161479d565b9050919050565b60006020820190508181036000830152614d20816147c0565b9050919050565b60006020820190508181036000830152614d40816147e3565b9050919050565b60006020820190508181036000830152614d6081614806565b9050919050565b6000602082019050614d7c600083018461485b565b92915050565b6000608082019050614d97600083018761485b565b614da4602083018661423f565b614db1604083018561423f565b614dbe606083018461485b565b95945050505050565b600061010082019050614ddd600083018b61485b565b614dea602083018a61423f565b614df7604083018961423f565b614e04606083018861485b565b614e11608083018761485b565b614e1e60a083018661485b565b614e2b60c08301856142ac565b614e3860e083018461485b565b9998505050505050505050565b6000606082019050614e5a600083018661485b565b614e6760208301856142ac565b614e74604083018461485b565b949350505050565b6000614e86614e97565b9050614e9282826151b0565b919050565b6000604051905090565b600067ffffffffffffffff821115614ebc57614ebb6152e8565b5b614ec582615317565b9050602081019050919050565b600067ffffffffffffffff821115614eed57614eec6152e8565b5b614ef682615317565b9050602081019050919050565b6000819050602082019050919050565b60008190508160005260206000209050919050565b600081519050919050565b600081519050919050565b600081519050919050565b6000602082019050919050565b600082825260208201905092915050565b600082825260208201905092915050565b600082825260208201905092915050565b600081905092915050565b6000614f9f82615113565b9150614faa83615113565b9250827fffffffffffffffffffffffffffffffffffffffffffffffffffffffffffffffff03821115614fdf57614fde61525b565b5b828201905092915050565b6000614ff582615113565b915061500083615113565b9250826150105761500f61528a565b5b828204905092915050565b600061502682615113565b915061503183615113565b9250817fffffffffffffffffffffffffffffffffffffffffffffffffffffffffffffffff048311821515161561506a5761506961525b565b5b828202905092915050565b600061508082615113565b915061508b83615113565b92508282101561509e5761509d61525b565b5b828203905092915050565b60006150b4826150f3565b9050919050565b60008115159050919050565b60007fffffffff0000000000000000000000000000000000000000000000000000000082169050919050565b600073ffffffffffffffffffffffffffffffffffffffff82169050919050565b6000819050919050565b600060ff82169050919050565b60006151358261511d565b9050919050565b82818337600083830152505050565b60005b8381101561516957808201518184015260208101905061514e565b83811115615178576000848401525b50505050565b6000600282049050600182168061519657607f821691505b602082108114156151aa576151a96152b9565b5b50919050565b6151b982615317565b810181811067ffffffffffffffff821117156151d8576151d76152e8565b5b80604052505050565b60006151ec82615113565b91507fffffffffffffffffffffffffffffffffffffffffffffffffffffffffffffffff82141561521f5761521e61525b565b5b600182019050919050565b600061523582615113565b915061524083615113565b9250826152505761524f61528a565b5b828206905092915050565b7f4e487b7100000000000000000000000000000000000000000000000000000000600052601160045260246000fd5b7f4e487b7100000000000000000000000000000000000000000000000000000000600052601260045260246000fd5b7f4e487b7100000000000000000000000000000000000000000000000000000000600052602260045260246000fd5b7f4e487b7100000000000000000000000000000000000000000000000000000000600052604160045260246000fd5b6000601f19601f8301169050919050565b7f5f657869737473285f746f6b656e496429000000000000000000000000000000600082015250565b7f4e6f7420656e6f75676820666565000000000000000000000000000000000000600082015250565b7f4f6e6c79206f776e657200000000000000000000000000000000000000000000600082015250565b7f4552433732313a207472616e7366657220746f206e6f6e20455243373231526560008201527f63656976657220696d706c656d656e7465720000000000000000000000000000602082015250565b7f4552433732313a207472616e736665722066726f6d20696e636f72726563742060008201527f6f776e6572000000000000000000000000000000000000000000000000000000602082015250565b7f4552433732313a20746f6b656e20616c7265616479206d696e74656400000000600082015250565b7f6d617820737570706c7900000000000000000000000000000000000000000000600082015250565b7f4552433732313a207472616e7366657220746f20746865207a65726f2061646460008201527f7265737300000000000000000000000000000000000000000000000000000000602082015250565b7f4552433732313a20617070726f766520746f2063616c6c657200000000000000600082015250565b7f6e6f74206f70656e000000000000000000000000000000000000000000000000600082015250565b7f4552433732313a206f70657261746f7220717565727920666f72206e6f6e657860008201527f697374656e7420746f6b656e0000000000000000000000000000000000000000602082015250565b7f6f7574206f6620626f756e647300000000000000000000000000000000000000600082015250565b7f4552433732313a20617070726f76652063616c6c6572206973206e6f74206f7760008201527f6e6572206e6f7220617070726f76656420666f7220616c6c0000000000000000602082015250565b7f4552433732313a2062616c616e636520717565727920666f7220746865207a6560008201527f726f206164647265737300000000000000000000000000000000000000000000602082015250565b7f4552433732313a206f776e657220717565727920666f72206e6f6e657869737460008201527f656e7420746f6b656e0000000000000000000000000000000000000000000000602082015250565b7f4d696e2031000000000000000000000000000000000000000000000000000000600082015250565b7f746f6b656e4f776e657220213d20616464726573732830290000000000000000600082015250565b7f496e697469616c697a61626c653a20636f6e747261637420697320616c72656160008201527f647920696e697469616c697a6564000000000000000000000000000000000000602082015250565b7f4552433732313a206d696e7420746f20746865207a65726f2061646472657373600082015250565b7f4d61782031320000000000000000000000000000000000000000000000000000600082015250565b7f4552433732313a20617070726f76656420717565727920666f72206e6f6e657860008201527f697374656e7420746f6b656e0000000000000000000000000000000000000000602082015250565b7f6361707461696e2e666f7253616c650000000000000000000000000000000000600082015250565b7f746f6b656e206e6f7420666f756e640000000000000000000000000000000000600082015250565b7f4552433732314d657461646174613a2055524920717565727920666f72206e6f60008201527f6e6578697374656e7420746f6b656e0000000000000000000000000000000000602082015250565b7f6d73672e76616c7565203e3d206361707461696e2e7072696365000000000000600082015250565b7f6d73672e73656e64657220213d20616464726573732830290000000000000000600082015250565b7f4552433732313a20617070726f76616c20746f2063757272656e74206f776e6560008201527f7200000000000000000000000000000000000000000000000000000000000000602082015250565b7f4552433732313a207472616e736665722063616c6c6572206973206e6f74206f60008201527f776e6572206e6f7220617070726f766564000000000000000000000000000000602082015250565b7f496e697469616c697a61626c653a20636f6e7472616374206973206e6f74206960008201527f6e697469616c697a696e67000000000000000000000000000000000000000000602082015250565b7f746f6b656e4f776e657220213d206d73672e73656e6465720000000000000000600082015250565b7f6e6f74206f776e65720000000000000000000000000000000000000000000000600082015250565b7f2f00000000000000000000000000000000000000000000000000000000000000600082015250565b615a3f816150a9565b8114615a4a57600080fd5b50565b615a56816150bb565b8114615a6157600080fd5b50565b615a6d816150c7565b8114615a7857600080fd5b50565b615a8481615113565b8114615a8f57600080fd5b5056fea26469706673582212201e46335fb34d8fa65e6548e041ab809a1724ce7db85c2f32514b81359c33912f64736f6c63430008040033697066733a2f2f516d64344d5656466d7136635a5657556f6671556d487361696f4c574475597873374b6a7675484a79554851634b2f68696464656e2e6a736f6e",
  "linkReferences": {},
  "deployedLinkReferences": {}
}