{
  "_format": "hh-sol-artifact-1",
  "contractName": "Fish",
  "sourceName": "contracts/Fish.sol",
  "abi": [
    {
      "inputs": [
        {
          "internalType": "address",
          "name": "_captainContract",
          "type": "address"
        }
      ],
      "stateMutability": "nonpayable",
      "type": "constructor"
    },
    {
      "anonymous": false,
      "inputs": [
        {
          "indexed": true,
          "internalType": "address",
          "name": "owner",
          "type": "address"
        },
        {
          "indexed": true,
          "internalType": "address",
          "name": "spender",
          "type": "address"
        },
        {
          "indexed": false,
          "internalType": "uint256",
          "name": "value",
          "type": "uint256"
        }
      ],
      "name": "Approval",
      "type": "event"
    },
    {
      "anonymous": false,
      "inputs": [
        {
          "indexed": false,
          "internalType": "address",
          "name": "owner",
          "type": "address"
        },
        {
          "indexed": false,
          "internalType": "uint256",
          "name": "fishAmt",
          "type": "uint256"
        }
      ],
      "name": "Burned",
      "type": "event"
    },
    {
      "anonymous": false,
      "inputs": [
        {
          "indexed": false,
          "internalType": "address",
          "name": "owner",
          "type": "address"
        },
        {
          "indexed": false,
          "internalType": "uint256",
          "name": "fishAmt",
          "type": "uint256"
        }
      ],
      "name": "Minted",
      "type": "event"
    },
    {
      "anonymous": false,
      "inputs": [
        {
          "indexed": true,
          "internalType": "address",
          "name": "previousOwner",
          "type": "address"
        },
        {
          "indexed": true,
          "internalType": "address",
          "name": "newOwner",
          "type": "address"
        }
      ],
      "name": "OwnershipTransferred",
      "type": "event"
    },
    {
      "anonymous": false,
      "inputs": [
        {
          "indexed": false,
          "internalType": "uint256",
          "name": "tid",
          "type": "uint256"
        },
        {
          "indexed": false,
          "internalType": "uint256",
          "name": "ts",
          "type": "uint256"
        }
      ],
      "name": "Staked",
      "type": "event"
    },
    {
      "anonymous": false,
      "inputs": [
        {
          "indexed": true,
          "internalType": "address",
          "name": "from",
          "type": "address"
        },
        {
          "indexed": true,
          "internalType": "address",
          "name": "to",
          "type": "address"
        },
        {
          "indexed": false,
          "internalType": "uint256",
          "name": "value",
          "type": "uint256"
        }
      ],
      "name": "Transfer",
      "type": "event"
    },
    {
      "anonymous": false,
      "inputs": [
        {
          "indexed": false,
          "internalType": "uint256",
          "name": "tid",
          "type": "uint256"
        },
        {
          "indexed": false,
          "internalType": "uint256",
          "name": "ts",
          "type": "uint256"
        }
      ],
      "name": "UnStaked",
      "type": "event"
    },
    {
      "inputs": [],
      "name": "BASE_HOLDER_FISH",
      "outputs": [
        {
          "internalType": "uint256",
          "name": "",
          "type": "uint256"
        }
      ],
      "stateMutability": "view",
      "type": "function"
    },
    {
      "inputs": [],
      "name": "CAPTAIN_CONTRACT",
      "outputs": [
        {
          "internalType": "address",
          "name": "",
          "type": "address"
        }
      ],
      "stateMutability": "view",
      "type": "function"
    },
    {
      "inputs": [],
      "name": "COOLDOWN_BASE",
      "outputs": [
        {
          "internalType": "uint256",
          "name": "",
          "type": "uint256"
        }
      ],
      "stateMutability": "view",
      "type": "function"
    },
    {
      "inputs": [],
      "name": "COOLDOWN_BASE_FACTOR",
      "outputs": [
        {
          "internalType": "uint256",
          "name": "",
          "type": "uint256"
        }
      ],
      "stateMutability": "view",
      "type": "function"
    },
    {
      "inputs": [],
      "name": "COOLDOWN_CD_IN_SECS",
      "outputs": [
        {
          "internalType": "uint256",
          "name": "",
          "type": "uint256"
        }
      ],
      "stateMutability": "view",
      "type": "function"
    },
    {
      "inputs": [],
      "name": "COOLDOWN_RATE",
      "outputs": [
        {
          "internalType": "uint256",
          "name": "",
          "type": "uint256"
        }
      ],
      "stateMutability": "view",
      "type": "function"
    },
    {
      "inputs": [],
      "name": "FISH_PER_DAY_PER_TON",
      "outputs": [
        {
          "internalType": "uint256",
          "name": "",
          "type": "uint256"
        }
      ],
      "stateMutability": "view",
      "type": "function"
    },
    {
      "inputs": [],
      "name": "LEVELING_BASE",
      "outputs": [
        {
          "internalType": "uint256",
          "name": "",
          "type": "uint256"
        }
      ],
      "stateMutability": "view",
      "type": "function"
    },
    {
      "inputs": [],
      "name": "LEVELING_RATE",
      "outputs": [
        {
          "internalType": "uint256",
          "name": "",
          "type": "uint256"
        }
      ],
      "stateMutability": "view",
      "type": "function"
    },
    {
      "inputs": [
        {
          "internalType": "address",
          "name": "_toAdd",
          "type": "address"
        }
      ],
      "name": "addAuthorized",
      "outputs": [],
      "stateMutability": "nonpayable",
      "type": "function"
    },
    {
      "inputs": [
        {
          "internalType": "uint256",
          "name": "from",
          "type": "uint256"
        },
        {
          "internalType": "uint256",
          "name": "to",
          "type": "uint256"
        },
        {
          "internalType": "uint256",
          "name": "amountOfFish",
          "type": "uint256"
        }
      ],
      "name": "airdropToExistingHolder",
      "outputs": [],
      "stateMutability": "nonpayable",
      "type": "function"
    },
    {
      "inputs": [
        {
          "internalType": "address",
          "name": "owner",
          "type": "address"
        },
        {
          "internalType": "address",
          "name": "spender",
          "type": "address"
        }
      ],
      "name": "allowance",
      "outputs": [
        {
          "internalType": "uint256",
          "name": "",
          "type": "uint256"
        }
      ],
      "stateMutability": "view",
      "type": "function"
    },
    {
      "inputs": [
        {
          "internalType": "address",
          "name": "spender",
          "type": "address"
        },
        {
          "internalType": "uint256",
          "name": "amount",
          "type": "uint256"
        }
      ],
      "name": "approve",
      "outputs": [
        {
          "internalType": "bool",
          "name": "",
          "type": "bool"
        }
      ],
      "stateMutability": "nonpayable",
      "type": "function"
    },
    {
      "inputs": [
        {
          "internalType": "address",
          "name": "",
          "type": "address"
        }
      ],
      "name": "authorized",
      "outputs": [
        {
          "internalType": "bool",
          "name": "",
          "type": "bool"
        }
      ],
      "stateMutability": "view",
      "type": "function"
    },
    {
      "inputs": [
        {
          "internalType": "address",
          "name": "account",
          "type": "address"
        }
      ],
      "name": "balanceOf",
      "outputs": [
        {
          "internalType": "uint256",
          "name": "",
          "type": "uint256"
        }
      ],
      "stateMutability": "view",
      "type": "function"
    },
    {
      "inputs": [
        {
          "internalType": "address",
          "name": "sender",
          "type": "address"
        },
        {
          "internalType": "uint256",
          "name": "fishAmount",
          "type": "uint256"
        }
      ],
      "name": "burnFish",
      "outputs": [],
      "stateMutability": "nonpayable",
      "type": "function"
    },
    {
      "inputs": [
        {
          "internalType": "uint256",
          "name": "ton",
          "type": "uint256"
        }
      ],
      "name": "checkSkipCoolingOffAmt",
      "outputs": [
        {
          "internalType": "uint256",
          "name": "",
          "type": "uint256"
        }
      ],
      "stateMutability": "view",
      "type": "function"
    },
    {
      "inputs": [
        {
          "internalType": "uint256[]",
          "name": "tokenIds",
          "type": "uint256[]"
        }
      ],
      "name": "claimFish",
      "outputs": [],
      "stateMutability": "nonpayable",
      "type": "function"
    },
    {
      "inputs": [
        {
          "internalType": "uint256",
          "name": "tokenId",
          "type": "uint256"
        }
      ],
      "name": "claimableView",
      "outputs": [
        {
          "internalType": "uint256",
          "name": "",
          "type": "uint256"
        }
      ],
      "stateMutability": "view",
      "type": "function"
    },
    {
      "inputs": [
        {
          "internalType": "uint256",
          "name": "ton",
          "type": "uint256"
        }
      ],
      "name": "cooldownRate",
      "outputs": [
        {
          "internalType": "uint256",
          "name": "",
          "type": "uint256"
        }
      ],
      "stateMutability": "view",
      "type": "function"
    },
    {
      "inputs": [],
      "name": "decimals",
      "outputs": [
        {
          "internalType": "uint8",
          "name": "",
          "type": "uint8"
        }
      ],
      "stateMutability": "view",
      "type": "function"
    },
    {
      "inputs": [
        {
          "internalType": "address",
          "name": "spender",
          "type": "address"
        },
        {
          "internalType": "uint256",
          "name": "subtractedValue",
          "type": "uint256"
        }
      ],
      "name": "decreaseAllowance",
      "outputs": [
        {
          "internalType": "bool",
          "name": "",
          "type": "bool"
        }
      ],
      "stateMutability": "nonpayable",
      "type": "function"
    },
    {
      "inputs": [
        {
          "internalType": "uint256",
          "name": "tokenId",
          "type": "uint256"
        },
        {
          "internalType": "uint256",
          "name": "yardAmount",
          "type": "uint256"
        }
      ],
      "name": "feedCaptain",
      "outputs": [],
      "stateMutability": "nonpayable",
      "type": "function"
    },
    {
      "inputs": [
        {
          "internalType": "uint256",
          "name": "ton",
          "type": "uint256"
        }
      ],
      "name": "feedLevelingRate",
      "outputs": [
        {
          "internalType": "uint256",
          "name": "",
          "type": "uint256"
        }
      ],
      "stateMutability": "view",
      "type": "function"
    },
    {
      "inputs": [
        {
          "internalType": "address",
          "name": "spender",
          "type": "address"
        },
        {
          "internalType": "uint256",
          "name": "addedValue",
          "type": "uint256"
        }
      ],
      "name": "increaseAllowance",
      "outputs": [
        {
          "internalType": "bool",
          "name": "",
          "type": "bool"
        }
      ],
      "stateMutability": "nonpayable",
      "type": "function"
    },
    {
      "inputs": [
        {
          "internalType": "uint256",
          "name": "tid",
          "type": "uint256"
        }
      ],
      "name": "levelUpCaptain",
      "outputs": [],
      "stateMutability": "nonpayable",
      "type": "function"
    },
    {
      "inputs": [
        {
          "internalType": "address",
          "name": "sender",
          "type": "address"
        },
        {
          "internalType": "uint256",
          "name": "amount",
          "type": "uint256"
        }
      ],
      "name": "mintFish",
      "outputs": [],
      "stateMutability": "nonpayable",
      "type": "function"
    },
    {
      "inputs": [],
      "name": "myClaimableView",
      "outputs": [
        {
          "internalType": "uint256",
          "name": "",
          "type": "uint256"
        }
      ],
      "stateMutability": "view",
      "type": "function"
    },
    {
      "inputs": [],
      "name": "myStakedCaptain",
      "outputs": [
        {
          "internalType": "uint256[]",
          "name": "",
          "type": "uint256[]"
        }
      ],
      "stateMutability": "view",
      "type": "function"
    },
    {
      "inputs": [],
      "name": "name",
      "outputs": [
        {
          "internalType": "string",
          "name": "",
          "type": "string"
        }
      ],
      "stateMutability": "view",
      "type": "function"
    },
    {
      "inputs": [],
      "name": "owner",
      "outputs": [
        {
          "internalType": "address",
          "name": "",
          "type": "address"
        }
      ],
      "stateMutability": "view",
      "type": "function"
    },
    {
      "inputs": [
        {
          "internalType": "uint256",
          "name": "from",
          "type": "uint256"
        },
        {
          "internalType": "uint256",
          "name": "to",
          "type": "uint256"
        }
      ],
      "name": "rebalanceEggClaimableToUserWallet",
      "outputs": [],
      "stateMutability": "nonpayable",
      "type": "function"
    },
    {
      "inputs": [
        {
          "internalType": "address",
          "name": "_toRemove",
          "type": "address"
        }
      ],
      "name": "removeAuthorized",
      "outputs": [],
      "stateMutability": "nonpayable",
      "type": "function"
    },
    {
      "inputs": [],
      "name": "renounceOwnership",
      "outputs": [],
      "stateMutability": "nonpayable",
      "type": "function"
    },
    {
      "inputs": [
        {
          "internalType": "uint256",
          "name": "tokenId",
          "type": "uint256"
        },
        {
          "internalType": "uint256",
          "name": "fishAmt",
          "type": "uint256"
        }
      ],
      "name": "skipCoolingOff",
      "outputs": [],
      "stateMutability": "nonpayable",
      "type": "function"
    },
    {
      "inputs": [
        {
          "internalType": "uint256[]",
          "name": "tids",
          "type": "uint256[]"
        }
      ],
      "name": "stake",
      "outputs": [],
      "stateMutability": "nonpayable",
      "type": "function"
    },
    {
      "inputs": [
        {
          "internalType": "uint256",
          "name": "",
          "type": "uint256"
        }
      ],
      "name": "stakedCaptain",
      "outputs": [
        {
          "internalType": "uint24",
          "name": "ton",
          "type": "uint24"
        },
        {
          "internalType": "uint32",
          "name": "sinceTs",
          "type": "uint32"
        },
        {
          "internalType": "uint32",
          "name": "lastSkippedTs",
          "type": "uint32"
        },
        {
          "internalType": "uint48",
          "name": "eatenAmount",
          "type": "uint48"
        },
        {
          "internalType": "uint32",
          "name": "cooldownTs",
          "type": "uint32"
        }
      ],
      "stateMutability": "view",
      "type": "function"
    },
    {
      "inputs": [],
      "name": "symbol",
      "outputs": [
        {
          "internalType": "string",
          "name": "",
          "type": "string"
        }
      ],
      "stateMutability": "view",
      "type": "function"
    },
    {
      "inputs": [],
      "name": "totalStakedCaptain",
      "outputs": [
        {
          "internalType": "uint16",
          "name": "",
          "type": "uint16"
        }
      ],
      "stateMutability": "view",
      "type": "function"
    },
    {
      "inputs": [],
      "name": "totalSupply",
      "outputs": [
        {
          "internalType": "uint256",
          "name": "",
          "type": "uint256"
        }
      ],
      "stateMutability": "view",
      "type": "function"
    },
    {
      "inputs": [],
      "name": "totalTon",
      "outputs": [
        {
          "internalType": "uint40",
          "name": "",
          "type": "uint40"
        }
      ],
      "stateMutability": "view",
      "type": "function"
    },
    {
      "inputs": [
        {
          "internalType": "address",
          "name": "to",
          "type": "address"
        },
        {
          "internalType": "uint256",
          "name": "amount",
          "type": "uint256"
        }
      ],
      "name": "transfer",
      "outputs": [
        {
          "internalType": "bool",
          "name": "",
          "type": "bool"
        }
      ],
      "stateMutability": "nonpayable",
      "type": "function"
    },
    {
      "inputs": [
        {
          "internalType": "address",
          "name": "from",
          "type": "address"
        },
        {
          "internalType": "address",
          "name": "to",
          "type": "address"
        },
        {
          "internalType": "uint256",
          "name": "amount",
          "type": "uint256"
        }
      ],
      "name": "transferFrom",
      "outputs": [
        {
          "internalType": "bool",
          "name": "",
          "type": "bool"
        }
      ],
      "stateMutability": "nonpayable",
      "type": "function"
    },
    {
      "inputs": [
        {
          "internalType": "address",
          "name": "newOwner",
          "type": "address"
        }
      ],
      "name": "transferOwnership",
      "outputs": [],
      "stateMutability": "nonpayable",
      "type": "function"
    },
    {
      "inputs": [
        {
          "internalType": "uint256[]",
          "name": "tids",
          "type": "uint256[]"
        }
      ],
      "name": "unstake",
      "outputs": [],
      "stateMutability": "nonpayable",
      "type": "function"
    },
    {
      "inputs": [
        {
          "internalType": "uint256",
          "name": "a",
          "type": "uint256"
        },
        {
          "internalType": "uint256",
          "name": "b",
          "type": "uint256"
        },
        {
          "internalType": "uint256",
          "name": "c",
          "type": "uint256"
        },
        {
          "internalType": "uint256",
          "name": "d",
          "type": "uint256"
        },
        {
          "internalType": "uint256",
          "name": "e",
          "type": "uint256"
        }
      ],
      "name": "updateSkipCooldownValues",
      "outputs": [],
      "stateMutability": "nonpayable",
      "type": "function"
    },
    {
      "inputs": [
        {
          "internalType": "uint256[]",
          "name": "tids",
          "type": "uint256[]"
        }
      ],
      "name": "withdrawAllCaptainAndClaim",
      "outputs": [],
      "stateMutability": "nonpayable",
      "type": "function"
    }
  ],
  "bytecode": "0x60806040526040518060400160405280600481526020017f46495348000000000000000000000000000000000000000000000000000000008152506007908051906020019062000051929190620003ac565b506040518060400160405280600481526020017f4649534800000000000000000000000000000000000000000000000000000000815250600890805190602001906200009f929190620003ac565b50670a688906bd8b0000600a556703782dace9d90000600b5568056bc75e2d63100000600c5568056bc75e2d63100000600d5562015180600e556019600f556002601055610e10601155348015620000f657600080fd5b506040516200620e3803806200620e83398181016040528101906200011c919062000473565b600780546200012b90620004d3565b80601f01602080910402602001604051908101604052809291908181526020018280546200015990620004d3565b8015620001aa5780601f106200017e57610100808354040283529160200191620001aa565b820191906000526020600020905b8154815290600101906020018083116200018c57829003601f168201915b505050505060088054620001be90620004d3565b80601f0160208091040260200160405190810160405280929190818152602001828054620001ec90620004d3565b80156200023d5780601f1062000211576101008083540402835291602001916200023d565b820191906000526020600020905b8154815290600101906020018083116200021f57829003601f168201915b505050505081600390805190602001906200025a929190620003ac565b50806004908051906020019062000273929190620003ac565b505050620002966200028a620002de60201b60201c565b620002e660201b60201c565b80600960006101000a81548173ffffffffffffffffffffffffffffffffffffffff021916908373ffffffffffffffffffffffffffffffffffffffff1602179055505062000552565b600033905090565b6000600560009054906101000a900473ffffffffffffffffffffffffffffffffffffffff16905081600560006101000a81548173ffffffffffffffffffffffffffffffffffffffff021916908373ffffffffffffffffffffffffffffffffffffffff1602179055508173ffffffffffffffffffffffffffffffffffffffff168173ffffffffffffffffffffffffffffffffffffffff167f8be0079c531659141344cd1fd0a4f28419497f9722a3daafe3b4186f6b6457e060405160405180910390a35050565b828054620003ba90620004d3565b90600052602060002090601f016020900481019282620003de57600085556200042a565b82601f10620003f957805160ff19168380011785556200042a565b828001600101855582156200042a579182015b82811115620004295782518255916020019190600101906200040c565b5b5090506200043991906200043d565b5090565b5b80821115620004585760008160009055506001016200043e565b5090565b6000815190506200046d8162000538565b92915050565b6000602082840312156200048657600080fd5b600062000496848285016200045c565b91505092915050565b6000620004ac82620004b3565b9050919050565b600073ffffffffffffffffffffffffffffffffffffffff82169050919050565b60006002820490506001821680620004ec57607f821691505b6020821081141562000503576200050262000509565b5b50919050565b7f4e487b7100000000000000000000000000000000000000000000000000000000600052602260045260246000fd5b62000543816200049f565b81146200054f57600080fd5b50565b615cac80620005626000396000f3fe608060405234801561001057600080fd5b50600436106102945760003560e01c806362ab674d11610167578063964c951c116100ce578063c00b346e11610087578063c00b346e14610807578063cf1c316a14610837578063dd62ed3e14610853578063e449f34114610883578063e7564ef61461089f578063f2fde38b146108bb57610294565b8063964c951c1461071d578063a457c2d71461073b578063a9059cbb1461076b578063b00cbdec1461079b578063b9181611146107b9578063bab3384d146107e957610294565b80637ab7b883116101205780637ab7b883146106415780638b100bc5146106755780638da5cb5b146106a5578063902367aa146106c357806391b67994146106e157806395d89b41146106ff57610294565b806362ab674d146105935780636e8110a5146105b157806370a08231146105cd578063715018a6146105fd578063749f948014610607578063783ae3a91461062357610294565b8063194854781161020b57806340f964dd116101c457806340f964dd146104d557806346da8ac9146105055780634791284b14610521578063485d7d941461053f57806348b82ceb1461055b5780635ab30dee1461057757610294565b806319485478146103ff5780631f6d15bd1461041b57806323b872dd146104395780632cc7c90014610469578063313ce5671461048757806339509351146104a557610294565b8063095ea7b31161025d578063095ea7b31461033d5780630fbf0a931461036d578063116be18e14610389578063167d1c84146103a757806318160ddd146103c35780631926b82e146103e157610294565b8062f75f7c1461029957806303bb5f02146102c9578063060df8c4146102e757806306125cb91461030357806306fdde031461031f575b600080fd5b6102b360048036038101906102ae91906144e1565b6108d7565b6040516102c09190614f94565b60405180910390f35b6102d16108fa565b6040516102de9190614f94565b60405180910390f35b61030160048036038101906102fc9190614621565b610900565b005b61031d600480360381019061031891906145e5565b610a2e565b005b610327610dfe565b6040516103349190614c04565b60405180910390f35b61035760048036038101906103529190614460565b610e90565b6040516103649190614be9565b60405180910390f35b6103876004803603810190610382919061449c565b610eb3565b005b610391610f21565b60405161039e9190614f94565b60405180910390f35b6103c160048036038101906103bc919061449c565b610f27565b005b6103cb610f3f565b6040516103d89190614f94565b60405180910390f35b6103e9610f49565b6040516103f69190614f26565b60405180910390f35b6104196004803603810190610414919061449c565b610f5d565b005b610423610f6b565b6040516104309190614f94565b60405180910390f35b610453600480360381019061044e9190614411565b610f71565b6040516104609190614be9565b60405180910390f35b610471610fa0565b60405161047e9190615001565b60405180910390f35b61048f610fb7565b60405161049c919061501c565b60405180910390f35b6104bf60048036038101906104ba9190614460565b610fc0565b6040516104cc9190614be9565b60405180910390f35b6104ef60048036038101906104ea91906144e1565b610ff7565b6040516104fc9190614f94565b60405180910390f35b61051f600480360381019061051a91906145e5565b611194565b005b6105296114c0565b6040516105369190614f94565b60405180910390f35b61055960048036038101906105549190614383565b6117b8565b005b610575600480360381019061057091906145e5565b611902565b005b610591600480360381019061058c9190614670565b611bd4565b005b61059b611bfe565b6040516105a89190614b83565b60405180910390f35b6105cb60048036038101906105c69190614460565b611c24565b005b6105e760048036038101906105e29190614383565b611c91565b6040516105f49190614f94565b60405180910390f35b610605611cd9565b005b610621600480360381019061061c91906144e1565b611d61565b005b61062b6121c9565b6040516106389190614f94565b60405180910390f35b61065b600480360381019061065691906144e1565b6121cf565b60405161066c959493929190614f41565b60405180910390f35b61068f600480360381019061068a91906144e1565b61225b565b60405161069c9190614f94565b60405180910390f35b6106ad61228b565b6040516106ba9190614b83565b60405180910390f35b6106cb6122b5565b6040516106d89190614f94565b60405180910390f35b6106e96122bb565b6040516106f69190614bc7565b60405180910390f35b610707612613565b6040516107149190614c04565b60405180910390f35b6107256126a5565b6040516107329190614f94565b60405180910390f35b61075560048036038101906107509190614460565b6126ab565b6040516107629190614be9565b60405180910390f35b61078560048036038101906107809190614460565b612722565b6040516107929190614be9565b60405180910390f35b6107a3612745565b6040516107b09190614f94565b60405180910390f35b6107d360048036038101906107ce9190614383565b61274b565b6040516107e09190614be9565b60405180910390f35b6107f161276b565b6040516107fe9190614f94565b60405180910390f35b610821600480360381019061081c91906144e1565b612771565b60405161082e9190614f94565b60405180910390f35b610851600480360381019061084c9190614383565b612794565b005b61086d600480360381019061086891906143d5565b6128a5565b60405161087a9190614f94565b60405180910390f35b61089d6004803603810190610898919061449c565b61292c565b005b6108b960048036038101906108b49190614460565b61293a565b005b6108d560048036038101906108d09190614383565b612948565b005b6000600d546064836108e99190615235565b6108f391906153d7565b9050919050565b600e5481565b6000600960009054906101000a900473ffffffffffffffffffffffffffffffffffffffff16905060008490505b838111610a275760008273ffffffffffffffffffffffffffffffffffffffff16636352211e836040518263ffffffff1660e01b815260040161096f9190614f94565b60206040518083038186803b15801561098757600080fd5b505afa15801561099b573d6000803e3d6000fd5b505050506040513d601f19601f820116820180604052508101906109bf91906143ac565b9050600073ffffffffffffffffffffffffffffffffffffffff168173ffffffffffffffffffffffffffffffffffffffff1614610a1357610a1281670de0b6b3a764000086610a0d91906153d7565b612a40565b5b508080610a1f906155e9565b91505061092d565b5050505050565b6000601383620186a18110610a6c577f4e487b7100000000000000000000000000000000000000000000000000000000600052603260045260246000fd5b016040518060a00160405290816000820160009054906101000a900462ffffff1662ffffff1662ffffff1681526020016000820160039054906101000a900463ffffffff1663ffffffff1663ffffffff1681526020016000820160079054906101000a900463ffffffff1663ffffffff1663ffffffff16815260200160008201600b9054906101000a900465ffffffffffff1665ffffffffffff1665ffffffffffff1681526020016000820160119054906101000a900463ffffffff1663ffffffff1663ffffffff168152505090506000816000015162ffffff161415610b88576040517f08c379a0000000000000000000000000000000000000000000000000000000008152600401610b7f90614e86565b60405180910390fd5b60004290506000610b9833611c91565b9050670de0b6b3a764000084610bae91906153d7565b811015610bf0576040517f08c379a0000000000000000000000000000000000000000000000000000000008152600401610be790614d66565b60405180910390fd5b610c02836000015162ffffff166108d7565b670de0b6b3a764000085610c1691906153d7565b1015610c57576040517f08c379a0000000000000000000000000000000000000000000000000000000008152600401610c4e90614c86565b60405180910390fd5b8163ffffffff16600e54846040015163ffffffff16610c7691906150fd565b1115610cb7576040517f08c379a0000000000000000000000000000000000000000000000000000000008152600401610cae90614ec6565b60405180910390fd5b610cc13385612ba0565b81836080019063ffffffff16908163ffffffff168152505081836040019063ffffffff16908163ffffffff168152505082601386620186a18110610d2e577f4e487b7100000000000000000000000000000000000000000000000000000000600052603260045260246000fd5b0160008201518160000160006101000a81548162ffffff021916908362ffffff16021790555060208201518160000160036101000a81548163ffffffff021916908363ffffffff16021790555060408201518160000160076101000a81548163ffffffff021916908363ffffffff160217905550606082015181600001600b6101000a81548165ffffffffffff021916908365ffffffffffff16021790555060808201518160000160116101000a81548163ffffffff021916908363ffffffff1602179055509050505050505050565b606060038054610e0d906155b7565b80601f0160208091040260200160405190810160405280929190818152602001828054610e39906155b7565b8015610e865780601f10610e5b57610100808354040283529160200191610e86565b820191906000526020600020905b815481529060010190602001808311610e6957829003601f168201915b5050505050905090565b600080610e9b612c58565b9050610ea8818585612c60565b600191505092915050565b60005b82829050811015610f1c57610f09838383818110610efd577f4e487b7100000000000000000000000000000000000000000000000000000000600052603260045260246000fd5b90506020020135612e2b565b8080610f14906155e9565b915050610eb6565b505050565b60105481565b610f31828261339d565b610f3b8282613891565b5050565b6000600254905090565b601260059054906101000a900461ffff1681565b610f67828261339d565b5050565b600d5481565b600080610f7c612c58565b9050610f898582856138ff565b610f9485858561398b565b60019150509392505050565b601260009054906101000a900464ffffffffff1681565b60006012905090565b600080610fcb612c58565b9050610fec818585610fdd85896128a5565b610fe791906150fd565b612c60565b600191505092915050565b600080601383620186a18110611036577f4e487b7100000000000000000000000000000000000000000000000000000000600052603260045260246000fd5b016040518060a00160405290816000820160009054906101000a900462ffffff1662ffffff1662ffffff1681526020016000820160039054906101000a900463ffffffff1663ffffffff1663ffffffff1681526020016000820160079054906101000a900463ffffffff1663ffffffff1663ffffffff16815260200160008201600b9054906101000a900465ffffffffffff1665ffffffffffff1665ffffffffffff1681526020016000820160119054906101000a900463ffffffff1663ffffffff1663ffffffff168152505090506000816000015162ffffff161115611189576000600a546064836000015161112d9190615204565b62ffffff16600b5461113f91906153d7565b61114991906150fd565b90506000826020015163ffffffff16426111639190615465565b905062015180826111749190615235565b8161117f91906153d7565b935050505061118f565b60009150505b919050565b6000600960009054906101000a900473ffffffffffffffffffffffffffffffffffffffff16905060008390505b8281116114ba5760008273ffffffffffffffffffffffffffffffffffffffff16636352211e836040518263ffffffff1660e01b81526004016112039190614f94565b60206040518083038186803b15801561121b57600080fd5b505afa15801561122f573d6000803e3d6000fd5b505050506040513d601f19601f8201168201806040525081019061125391906143ac565b90506000601383620186a18110611293577f4e487b7100000000000000000000000000000000000000000000000000000000600052603260045260246000fd5b016040518060a00160405290816000820160009054906101000a900462ffffff1662ffffff1662ffffff1681526020016000820160039054906101000a900463ffffffff1663ffffffff1663ffffffff1681526020016000820160079054906101000a900463ffffffff1663ffffffff1663ffffffff16815260200160008201600b9054906101000a900465ffffffffffff1665ffffffffffff1665ffffffffffff1681526020016000820160119054906101000a900463ffffffff1663ffffffff1663ffffffff168152505090506000816000015162ffffff1611156114a5576113868261138185610ff7565b612a40565b42816020019063ffffffff16908163ffffffff168152505080601384620186a181106113db577f4e487b7100000000000000000000000000000000000000000000000000000000600052603260045260246000fd5b0160008201518160000160006101000a81548162ffffff021916908362ffffff16021790555060208201518160000160036101000a81548163ffffffff021916908363ffffffff16021790555060408201518160000160076101000a81548163ffffffff021916908363ffffffff160217905550606082015181600001600b6101000a81548165ffffffffffff021916908365ffffffffffff16021790555060808201518160000160116101000a81548163ffffffff021916908363ffffffff1602179055509050505b505080806114b2906155e9565b9150506111c1565b50505050565b600080600960009054906101000a900473ffffffffffffffffffffffffffffffffffffffff16905060008173ffffffffffffffffffffffffffffffffffffffff166370a08231336040518263ffffffff1660e01b81526004016115239190614b83565b60206040518083038186803b15801561153b57600080fd5b505afa15801561154f573d6000803e3d6000fd5b505050506040513d601f19601f82011682018060405250810190611573919061450a565b9050600081116115b8576040517f08c379a00000000000000000000000000000000000000000000000000000000081526004016115af90614d46565b60405180910390fd5b6000805b828110156117ae5760008473ffffffffffffffffffffffffffffffffffffffff16632f745c5933846040518363ffffffff1660e01b8152600401611601929190614b9e565b60206040518083038186803b15801561161957600080fd5b505afa15801561162d573d6000803e3d6000fd5b505050506040513d601f19601f82011682018060405250810190611651919061450a565b90506000601382620186a18110611691577f4e487b7100000000000000000000000000000000000000000000000000000000600052603260045260246000fd5b016040518060a00160405290816000820160009054906101000a900462ffffff1662ffffff1662ffffff1681526020016000820160039054906101000a900463ffffffff1663ffffffff1663ffffffff1681526020016000820160079054906101000a900463ffffffff1663ffffffff1663ffffffff16815260200160008201600b9054906101000a900465ffffffffffff1665ffffffffffff1665ffffffffffff1681526020016000820160119054906101000a900463ffffffff1663ffffffff1663ffffffff168152505090506000816000015162ffffff16111561179957600061177d83610ff7565b9050600081111561179757808561179491906150fd565b94505b505b505080806117a6906155e9565b9150506115bc565b5080935050505090565b6117c0612c58565b73ffffffffffffffffffffffffffffffffffffffff166117de61228b565b73ffffffffffffffffffffffffffffffffffffffff1614611834576040517f08c379a000000000000000000000000000000000000000000000000000000000815260040161182b90614dc6565b60405180910390fd5b600073ffffffffffffffffffffffffffffffffffffffff168173ffffffffffffffffffffffffffffffffffffffff16141561186e57600080fd5b3373ffffffffffffffffffffffffffffffffffffffff168173ffffffffffffffffffffffffffffffffffffffff1614156118a757600080fd5b6000600660008373ffffffffffffffffffffffffffffffffffffffff1673ffffffffffffffffffffffffffffffffffffffff16815260200190815260200160002060006101000a81548160ff02191690831515021790555050565b6000601383620186a18110611940577f4e487b7100000000000000000000000000000000000000000000000000000000600052603260045260246000fd5b016040518060a00160405290816000820160009054906101000a900462ffffff1662ffffff1662ffffff1681526020016000820160039054906101000a900463ffffffff1663ffffffff1663ffffffff1681526020016000820160079054906101000a900463ffffffff1663ffffffff1663ffffffff16815260200160008201600b9054906101000a900465ffffffffffff1665ffffffffffff1665ffffffffffff1681526020016000820160119054906101000a900463ffffffff1663ffffffff1663ffffffff168152505090506000816000015162ffffff1611611a5b576040517f08c379a0000000000000000000000000000000000000000000000000000000008152600401611a5290614e66565b60405180910390fd5b60008211611a9e576040517f08c379a0000000000000000000000000000000000000000000000000000000008152600401611a9590614c26565b60405180910390fd5b806060015182611aae91906151c8565b816060019065ffffffffffff16908165ffffffffffff168152505080601384620186a18110611b06577f4e487b7100000000000000000000000000000000000000000000000000000000600052603260045260246000fd5b0160008201518160000160006101000a81548162ffffff021916908362ffffff16021790555060208201518160000160036101000a81548163ffffffff021916908363ffffffff16021790555060408201518160000160076101000a81548163ffffffff021916908363ffffffff160217905550606082015181600001600b6101000a81548165ffffffffffff021916908365ffffffffffff16021790555060808201518160000160116101000a81548163ffffffff021916908363ffffffff160217905550905050505050565b84600c8190555083600d8190555082600e8190555081600a8190555080600b819055505050505050565b600960009054906101000a900473ffffffffffffffffffffffffffffffffffffffff1681565b611c4182670de0b6b3a764000083611c3c91906153d7565b612a40565b7f30385c845b448a36257a6a1716e6ad2e1bc2cbe333cde1e69fe849ad6511adfe82670de0b6b3a764000083611c7791906153d7565b604051611c85929190614b9e565b60405180910390a15050565b60008060008373ffffffffffffffffffffffffffffffffffffffff1673ffffffffffffffffffffffffffffffffffffffff168152602001908152602001600020549050919050565b611ce1612c58565b73ffffffffffffffffffffffffffffffffffffffff16611cff61228b565b73ffffffffffffffffffffffffffffffffffffffff1614611d55576040517f08c379a0000000000000000000000000000000000000000000000000000000008152600401611d4c90614dc6565b60405180910390fd5b611d5f6000613c0c565b565b6000601382620186a18110611d9f577f4e487b7100000000000000000000000000000000000000000000000000000000600052603260045260246000fd5b016040518060a00160405290816000820160009054906101000a900462ffffff1662ffffff1662ffffff1681526020016000820160039054906101000a900463ffffffff1663ffffffff1663ffffffff1681526020016000820160079054906101000a900463ffffffff1663ffffffff1663ffffffff16815260200160008201600b9054906101000a900465ffffffffffff1665ffffffffffff1665ffffffffffff1681526020016000820160119054906101000a900463ffffffff1663ffffffff1663ffffffff168152505090506000816000015162ffffff1611611eba576040517f08c379a0000000000000000000000000000000000000000000000000000000008152600401611eb190614da6565b60405180910390fd5b6000600960009054906101000a900473ffffffffffffffffffffffffffffffffffffffff169050611ef3826000015162ffffff1661225b565b826060015165ffffffffffff161015611f41576040517f08c379a0000000000000000000000000000000000000000000000000000000008152600401611f3890614ce6565b60405180910390fd5b816080015163ffffffff16421015611f8e576040517f08c379a0000000000000000000000000000000000000000000000000000000008152600401611f8590614d86565b60405180910390fd5b60648260000151611f9f91906150c4565b826000019062ffffff16908162ffffff16815250506000826060019065ffffffffffff16908165ffffffffffff1681525050611fe3826000015162ffffff16612771565b42611fee91906150fd565b826080019063ffffffff16908163ffffffff168152505081601384620186a18110612042577f4e487b7100000000000000000000000000000000000000000000000000000000600052603260045260246000fd5b0160008201518160000160006101000a81548162ffffff021916908362ffffff16021790555060208201518160000160036101000a81548163ffffffff021916908363ffffffff16021790555060408201518160000160076101000a81548163ffffffff021916908363ffffffff160217905550606082015181600001600b6101000a81548165ffffffffffff021916908365ffffffffffff16021790555060808201518160000160116101000a81548163ffffffff021916908363ffffffff160217905550905050606462ffffff16601260008282829054906101000a900464ffffffffff16612133919061518d565b92506101000a81548164ffffffffff021916908364ffffffffff1602179055508073ffffffffffffffffffffffffffffffffffffffff16632324ba8e8484600001516040518363ffffffff1660e01b8152600401612192929190614faf565b600060405180830381600087803b1580156121ac57600080fd5b505af11580156121c0573d6000803e3d6000fd5b50505050505050565b600b5481565b601381620186a181106121e157600080fd5b016000915090508060000160009054906101000a900462ffffff16908060000160039054906101000a900463ffffffff16908060000160079054906101000a900463ffffffff169080600001600b9054906101000a900465ffffffffffff16908060000160119054906101000a900463ffffffff16905085565b600060105460648361226d9190615235565b61227791906152b9565b600f5461228491906153d7565b9050919050565b6000600560009054906101000a900473ffffffffffffffffffffffffffffffffffffffff16905090565b60115481565b60606000600960009054906101000a900473ffffffffffffffffffffffffffffffffffffffff16905060008173ffffffffffffffffffffffffffffffffffffffff166370a08231336040518263ffffffff1660e01b815260040161231f9190614b83565b60206040518083038186803b15801561233757600080fd5b505afa15801561234b573d6000803e3d6000fd5b505050506040513d601f19601f8201168201806040525081019061236f919061450a565b905060008167ffffffffffffffff8111156123b3577f4e487b7100000000000000000000000000000000000000000000000000000000600052604160045260246000fd5b6040519080825280602002602001820160405280156123e15781602001602082028036833780820191505090505b5090506000805b838110156126085760008573ffffffffffffffffffffffffffffffffffffffff16632f745c5933846040518363ffffffff1660e01b815260040161242d929190614b9e565b60206040518083038186803b15801561244557600080fd5b505afa158015612459573d6000803e3d6000fd5b505050506040513d601f19601f8201168201806040525081019061247d919061450a565b90506000601382620186a181106124bd577f4e487b7100000000000000000000000000000000000000000000000000000000600052603260045260246000fd5b016040518060a00160405290816000820160009054906101000a900462ffffff1662ffffff1662ffffff1681526020016000820160039054906101000a900463ffffffff1663ffffffff1663ffffffff1681526020016000820160079054906101000a900463ffffffff1663ffffffff1663ffffffff16815260200160008201600b9054906101000a900465ffffffffffff1665ffffffffffff1665ffffffffffff1681526020016000820160119054906101000a900463ffffffff1663ffffffff1663ffffffff168152505090506000816000015162ffffff1611156125f357818585815181106125d8577f4e487b7100000000000000000000000000000000000000000000000000000000600052603260045260246000fd5b60200260200101818152505083806125ef906155e9565b9450505b50508080612600906155e9565b9150506123e8565b508194505050505090565b606060048054612622906155b7565b80601f016020809104026020016040519081016040528092919081815260200182805461264e906155b7565b801561269b5780601f106126705761010080835404028352916020019161269b565b820191906000526020600020905b81548152906001019060200180831161267e57829003601f168201915b5050505050905090565b600a5481565b6000806126b6612c58565b905060006126c482866128a5565b905083811015612709576040517f08c379a000000000000000000000000000000000000000000000000000000000815260040161270090614ee6565b60405180910390fd5b6127168286868403612c60565b60019250505092915050565b60008061272d612c58565b905061273a81858561398b565b600191505092915050565b600c5481565b60066020528060005260406000206000915054906101000a900460ff1681565b600f5481565b60006011546064836127839190615235565b61278d91906153d7565b9050919050565b61279c612c58565b73ffffffffffffffffffffffffffffffffffffffff166127ba61228b565b73ffffffffffffffffffffffffffffffffffffffff1614612810576040517f08c379a000000000000000000000000000000000000000000000000000000000815260040161280790614dc6565b60405180910390fd5b600073ffffffffffffffffffffffffffffffffffffffff168173ffffffffffffffffffffffffffffffffffffffff16141561284a57600080fd5b6001600660008373ffffffffffffffffffffffffffffffffffffffff1673ffffffffffffffffffffffffffffffffffffffff16815260200190815260200160002060006101000a81548160ff02191690831515021790555050565b6000600160008473ffffffffffffffffffffffffffffffffffffffff1673ffffffffffffffffffffffffffffffffffffffff16815260200190815260200160002060008373ffffffffffffffffffffffffffffffffffffffff1673ffffffffffffffffffffffffffffffffffffffff16815260200190815260200160002054905092915050565b6129368282613891565b5050565b6129448282612ba0565b5050565b612950612c58565b73ffffffffffffffffffffffffffffffffffffffff1661296e61228b565b73ffffffffffffffffffffffffffffffffffffffff16146129c4576040517f08c379a00000000000000000000000000000000000000000000000000000000081526004016129bb90614dc6565b60405180910390fd5b600073ffffffffffffffffffffffffffffffffffffffff168173ffffffffffffffffffffffffffffffffffffffff161415612a34576040517f08c379a0000000000000000000000000000000000000000000000000000000008152600401612a2b90614ca6565b60405180910390fd5b612a3d81613c0c565b50565b600073ffffffffffffffffffffffffffffffffffffffff168273ffffffffffffffffffffffffffffffffffffffff161415612ab0576040517f08c379a0000000000000000000000000000000000000000000000000000000008152600401612aa790614f06565b60405180910390fd5b612abc60008383613cd2565b8060026000828254612ace91906150fd565b92505081905550806000808473ffffffffffffffffffffffffffffffffffffffff1673ffffffffffffffffffffffffffffffffffffffff1681526020019081526020016000206000828254612b2391906150fd565b925050819055508173ffffffffffffffffffffffffffffffffffffffff16600073ffffffffffffffffffffffffffffffffffffffff167fddf252ad1be2c89b69c2b068fc378daa952ba7f163c4a11628f55a4df523b3ef83604051612b889190614f94565b60405180910390a3612b9c60008383613cd7565b5050565b80612baa83611c91565b1015612beb576040517f08c379a0000000000000000000000000000000000000000000000000000000008152600401612be290614de6565b60405180910390fd5b612c0882670de0b6b3a764000083612c0391906153d7565b613cdc565b7f696de425f79f4a40bc6d2122ca50507f0efbeabbff86a84871b7196ab8ea8df782670de0b6b3a764000083612c3e91906153d7565b604051612c4c929190614b9e565b60405180910390a15050565b600033905090565b600073ffffffffffffffffffffffffffffffffffffffff168373ffffffffffffffffffffffffffffffffffffffff161415612cd0576040517f08c379a0000000000000000000000000000000000000000000000000000000008152600401612cc790614e46565b60405180910390fd5b600073ffffffffffffffffffffffffffffffffffffffff168273ffffffffffffffffffffffffffffffffffffffff161415612d40576040517f08c379a0000000000000000000000000000000000000000000000000000000008152600401612d3790614cc6565b60405180910390fd5b80600160008573ffffffffffffffffffffffffffffffffffffffff1673ffffffffffffffffffffffffffffffffffffffff16815260200190815260200160002060008473ffffffffffffffffffffffffffffffffffffffff1673ffffffffffffffffffffffffffffffffffffffff168152602001908152602001600020819055508173ffffffffffffffffffffffffffffffffffffffff168373ffffffffffffffffffffffffffffffffffffffff167f8c5be1e5ebec7d5bd14f71427d1e84f3dd0314c0f7b2291e5b200ac8c7c3b92583604051612e1e9190614f94565b60405180910390a3505050565b6000600960009054906101000a900473ffffffffffffffffffffffffffffffffffffffff1690503373ffffffffffffffffffffffffffffffffffffffff168173ffffffffffffffffffffffffffffffffffffffff16636352211e846040518263ffffffff1660e01b8152600401612ea29190614f94565b60206040518083038186803b158015612eba57600080fd5b505afa158015612ece573d6000803e3d6000fd5b505050506040513d601f19601f82011682018060405250810190612ef291906143ac565b73ffffffffffffffffffffffffffffffffffffffff1614612f48576040517f08c379a0000000000000000000000000000000000000000000000000000000008152600401612f3f90614ea6565b60405180910390fd5b60008173ffffffffffffffffffffffffffffffffffffffff166338b3e16b846040518263ffffffff1660e01b8152600401612f839190614f94565b6101006040518083038186803b158015612f9c57600080fd5b505afa158015612fb0573d6000803e3d6000fd5b505050506040513d601f19601f82011682018060405250810190612fd49190614533565b9750505050505050506000601384620186a1811061301b577f4e487b7100000000000000000000000000000000000000000000000000000000600052603260045260246000fd5b016040518060a00160405290816000820160009054906101000a900462ffffff1662ffffff1662ffffff1681526020016000820160039054906101000a900463ffffffff1663ffffffff1663ffffffff1681526020016000820160079054906101000a900463ffffffff1663ffffffff1663ffffffff16815260200160008201600b9054906101000a900465ffffffffffff1665ffffffffffff1665ffffffffffff1681526020016000820160119054906101000a900463ffffffff1663ffffffff1663ffffffff1681525050905060004290506000601386620186a1811061312d577f4e487b7100000000000000000000000000000000000000000000000000000000600052603260045260246000fd5b0160000160009054906101000a900462ffffff1662ffffff161415613396576040518060a001604052808462ffffff1681526020018263ffffffff1681526020016000846040015163ffffffff161161319957600e548363ffffffff166131949190615465565b61319f565b83604001515b63ffffffff168152602001600065ffffffffffff1681526020016131c285612771565b836131cd9190615153565b63ffffffff16815250601386620186a18110613212577f4e487b7100000000000000000000000000000000000000000000000000000000600052603260045260246000fd5b0160008201518160000160006101000a81548162ffffff021916908362ffffff16021790555060208201518160000160036101000a81548163ffffffff021916908363ffffffff16021790555060408201518160000160076101000a81548163ffffffff021916908363ffffffff160217905550606082015181600001600b6101000a81548165ffffffffffff021916908365ffffffffffff16021790555060808201518160000160116101000a81548163ffffffff021916908363ffffffff1602179055509050506001601260058282829054906101000a900461ffff166132fb919061508c565b92506101000a81548161ffff021916908361ffff1602179055508262ffffff16601260008282829054906101000a900464ffffffffff1661333c919061518d565b92506101000a81548164ffffffffff021916908364ffffffffff1602179055507f925435fa7e37e5d9555bb18ce0d62bb9627d0846942e58e5291e9a2dded462ed854260405161338d929190614fd8565b60405180910390a15b5050505050565b6000600960009054906101000a900473ffffffffffffffffffffffffffffffffffffffff1690506000805b8484905081101561383d573373ffffffffffffffffffffffffffffffffffffffff168373ffffffffffffffffffffffffffffffffffffffff16636352211e87878581811061343f577f4e487b7100000000000000000000000000000000000000000000000000000000600052603260045260246000fd5b905060200201356040518263ffffffff1660e01b81526004016134629190614f94565b60206040518083038186803b15801561347a57600080fd5b505afa15801561348e573d6000803e3d6000fd5b505050506040513d601f19601f820116820180604052508101906134b291906143ac565b73ffffffffffffffffffffffffffffffffffffffff1614613508576040517f08c379a00000000000000000000000000000000000000000000000000000000081526004016134ff90614ea6565b60405180910390fd5b60006013868684818110613545577f4e487b7100000000000000000000000000000000000000000000000000000000600052603260045260246000fd5b90506020020135620186a18110613585577f4e487b7100000000000000000000000000000000000000000000000000000000600052603260045260246000fd5b016040518060a00160405290816000820160009054906101000a900462ffffff1662ffffff1662ffffff1681526020016000820160039054906101000a900463ffffffff1663ffffffff1663ffffffff1681526020016000820160079054906101000a900463ffffffff1663ffffffff1663ffffffff16815260200160008201600b9054906101000a900465ffffffffffff1665ffffffffffff1665ffffffffffff1681526020016000820160119054906101000a900463ffffffff1663ffffffff1663ffffffff168152505090506000816000015162ffffff1611156138295760006136b08787858181106136a4577f4e487b7100000000000000000000000000000000000000000000000000000000600052603260045260246000fd5b90506020020135610ff7565b905060008111156138275780846136c791906150fd565b935042826020019063ffffffff16908163ffffffff168152505081601388888681811061371d577f4e487b7100000000000000000000000000000000000000000000000000000000600052603260045260246000fd5b90506020020135620186a1811061375d577f4e487b7100000000000000000000000000000000000000000000000000000000600052603260045260246000fd5b0160008201518160000160006101000a81548162ffffff021916908362ffffff16021790555060208201518160000160036101000a81548163ffffffff021916908363ffffffff16021790555060408201518160000160076101000a81548163ffffffff021916908363ffffffff160217905550606082015181600001600b6101000a81548165ffffffffffff021916908365ffffffffffff16021790555060808201518160000160116101000a81548163ffffffff021916908363ffffffff1602179055509050505b505b508080613835906155e9565b9150506133c8565b50600081111561388b576138513382612a40565b7f30385c845b448a36257a6a1716e6ad2e1bc2cbe333cde1e69fe849ad6511adfe3382604051613882929190614b9e565b60405180910390a15b50505050565b60005b828290508110156138fa576138e78383838181106138db577f4e487b7100000000000000000000000000000000000000000000000000000000600052603260045260246000fd5b90506020020135613eb3565b80806138f2906155e9565b915050613894565b505050565b600061390b84846128a5565b90507fffffffffffffffffffffffffffffffffffffffffffffffffffffffffffffffff81146139855781811015613977576040517f08c379a000000000000000000000000000000000000000000000000000000000815260040161396e90614d06565b60405180910390fd5b6139848484848403612c60565b5b50505050565b600073ffffffffffffffffffffffffffffffffffffffff168373ffffffffffffffffffffffffffffffffffffffff1614156139fb576040517f08c379a00000000000000000000000000000000000000000000000000000000081526004016139f290614e26565b60405180910390fd5b600073ffffffffffffffffffffffffffffffffffffffff168273ffffffffffffffffffffffffffffffffffffffff161415613a6b576040517f08c379a0000000000000000000000000000000000000000000000000000000008152600401613a6290614c46565b60405180910390fd5b613a76838383613cd2565b60008060008573ffffffffffffffffffffffffffffffffffffffff1673ffffffffffffffffffffffffffffffffffffffff16815260200190815260200160002054905081811015613afc576040517f08c379a0000000000000000000000000000000000000000000000000000000008152600401613af390614d26565b60405180910390fd5b8181036000808673ffffffffffffffffffffffffffffffffffffffff1673ffffffffffffffffffffffffffffffffffffffff16815260200190815260200160002081905550816000808573ffffffffffffffffffffffffffffffffffffffff1673ffffffffffffffffffffffffffffffffffffffff1681526020019081526020016000206000828254613b8f91906150fd565b925050819055508273ffffffffffffffffffffffffffffffffffffffff168473ffffffffffffffffffffffffffffffffffffffff167fddf252ad1be2c89b69c2b068fc378daa952ba7f163c4a11628f55a4df523b3ef84604051613bf39190614f94565b60405180910390a3613c06848484613cd7565b50505050565b6000600560009054906101000a900473ffffffffffffffffffffffffffffffffffffffff16905081600560006101000a81548173ffffffffffffffffffffffffffffffffffffffff021916908373ffffffffffffffffffffffffffffffffffffffff1602179055508173ffffffffffffffffffffffffffffffffffffffff168173ffffffffffffffffffffffffffffffffffffffff167f8be0079c531659141344cd1fd0a4f28419497f9722a3daafe3b4186f6b6457e060405160405180910390a35050565b505050565b505050565b600073ffffffffffffffffffffffffffffffffffffffff168273ffffffffffffffffffffffffffffffffffffffff161415613d4c576040517f08c379a0000000000000000000000000000000000000000000000000000000008152600401613d4390614e06565b60405180910390fd5b613d5882600083613cd2565b60008060008473ffffffffffffffffffffffffffffffffffffffff1673ffffffffffffffffffffffffffffffffffffffff16815260200190815260200160002054905081811015613dde576040517f08c379a0000000000000000000000000000000000000000000000000000000008152600401613dd590614c66565b60405180910390fd5b8181036000808573ffffffffffffffffffffffffffffffffffffffff1673ffffffffffffffffffffffffffffffffffffffff168152602001908152602001600020819055508160026000828254613e359190615465565b92505081905550600073ffffffffffffffffffffffffffffffffffffffff168373ffffffffffffffffffffffffffffffffffffffff167fddf252ad1be2c89b69c2b068fc378daa952ba7f163c4a11628f55a4df523b3ef84604051613e9a9190614f94565b60405180910390a3613eae83600084613cd7565b505050565b6000600960009054906101000a900473ffffffffffffffffffffffffffffffffffffffff1690503373ffffffffffffffffffffffffffffffffffffffff168173ffffffffffffffffffffffffffffffffffffffff16636352211e846040518263ffffffff1660e01b8152600401613f2a9190614f94565b60206040518083038186803b158015613f4257600080fd5b505afa158015613f56573d6000803e3d6000fd5b505050506040513d601f19601f82011682018060405250810190613f7a91906143ac565b73ffffffffffffffffffffffffffffffffffffffff1614613fd0576040517f08c379a0000000000000000000000000000000000000000000000000000000008152600401613fc790614ea6565b60405180910390fd5b6000601383620186a1811061400e577f4e487b7100000000000000000000000000000000000000000000000000000000600052603260045260246000fd5b016040518060a00160405290816000820160009054906101000a900462ffffff1662ffffff1662ffffff1681526020016000820160039054906101000a900463ffffffff1663ffffffff1663ffffffff1681526020016000820160079054906101000a900463ffffffff1663ffffffff1663ffffffff16815260200160008201600b9054906101000a900465ffffffffffff1665ffffffffffff1665ffffffffffff1681526020016000820160119054906101000a900463ffffffff1663ffffffff1663ffffffff168152505090506000816000015162ffffff1611156142cb57806000015162ffffff16601260008282829054906101000a900464ffffffffff1661411a9190615499565b92506101000a81548164ffffffffff021916908364ffffffffff1602179055506001601260058282829054906101000a900461ffff1661415a9190615431565b92506101000a81548161ffff021916908361ffff1602179055506000816000019062ffffff16908162ffffff168152505080601384620186a181106141c8577f4e487b7100000000000000000000000000000000000000000000000000000000600052603260045260246000fd5b0160008201518160000160006101000a81548162ffffff021916908362ffffff16021790555060208201518160000160036101000a81548163ffffffff021916908363ffffffff16021790555060408201518160000160076101000a81548163ffffffff021916908363ffffffff160217905550606082015181600001600b6101000a81548165ffffffffffff021916908365ffffffffffff16021790555060808201518160000160116101000a81548163ffffffff021916908363ffffffff1602179055509050507f69f6d6e6926b6914c628cca5ab19879a4099facaba2b44626e07d8e38ebd189b83426040516142c2929190614fd8565b60405180910390a15b505050565b6000813590506142df81615c31565b92915050565b6000815190506142f481615c31565b92915050565b60008083601f84011261430c57600080fd5b8235905067ffffffffffffffff81111561432557600080fd5b60208301915083602082028301111561433d57600080fd5b9250929050565b60008151905061435381615c48565b92915050565b60008135905061436881615c5f565b92915050565b60008151905061437d81615c5f565b92915050565b60006020828403121561439557600080fd5b60006143a3848285016142d0565b91505092915050565b6000602082840312156143be57600080fd5b60006143cc848285016142e5565b91505092915050565b600080604083850312156143e857600080fd5b60006143f6858286016142d0565b9250506020614407858286016142d0565b9150509250929050565b60008060006060848603121561442657600080fd5b6000614434868287016142d0565b9350506020614445868287016142d0565b925050604061445686828701614359565b9150509250925092565b6000806040838503121561447357600080fd5b6000614481858286016142d0565b925050602061449285828601614359565b9150509250929050565b600080602083850312156144af57600080fd5b600083013567ffffffffffffffff8111156144c957600080fd5b6144d5858286016142fa565b92509250509250929050565b6000602082840312156144f357600080fd5b600061450184828501614359565b91505092915050565b60006020828403121561451c57600080fd5b600061452a8482850161436e565b91505092915050565b600080600080600080600080610100898b03121561455057600080fd5b600061455e8b828c0161436e565b985050602061456f8b828c016142e5565b97505060406145808b828c016142e5565b96505060606145918b828c0161436e565b95505060806145a28b828c0161436e565b94505060a06145b38b828c0161436e565b93505060c06145c48b828c01614344565b92505060e06145d58b828c0161436e565b9150509295985092959890939650565b600080604083850312156145f857600080fd5b600061460685828601614359565b925050602061461785828601614359565b9150509250929050565b60008060006060848603121561463657600080fd5b600061464486828701614359565b935050602061465586828701614359565b925050604061466686828701614359565b9150509250925092565b600080600080600060a0868803121561468857600080fd5b600061469688828901614359565b95505060206146a788828901614359565b94505060406146b888828901614359565b93505060606146c988828901614359565b92505060806146da88828901614359565b9150509295509295909350565b60006146f38383614b29565b60208301905092915050565b614708816154cd565b82525050565b600061471982615047565b614723818561506a565b935061472e83615037565b8060005b8381101561475f57815161474688826146e7565b97506147518361505d565b925050600181019050614732565b5085935050505092915050565b614775816154df565b82525050565b600061478682615052565b614790818561507b565b93506147a0818560208601615584565b6147a9816156bf565b840191505092915050565b60006147c1600f8361507b565b91506147cc826156dd565b602082019050919050565b60006147e460238361507b565b91506147ef82615706565b604082019050919050565b600061480760228361507b565b915061481282615755565b604082019050919050565b600061482a60178361507b565b9150614835826157a4565b602082019050919050565b600061484d60268361507b565b9150614858826157cd565b604082019050919050565b600061487060228361507b565b915061487b8261581c565b604082019050919050565b6000614893600e8361507b565b915061489e8261586b565b602082019050919050565b60006148b6601d8361507b565b91506148c182615894565b602082019050919050565b60006148d960268361507b565b91506148e4826158bd565b604082019050919050565b60006148fc60088361507b565b91506149078261590c565b602082019050919050565b600061491f60198361507b565b915061492a82615935565b602082019050919050565b600061494260108361507b565b915061494d8261595e565b602082019050919050565b600061496560238361507b565b915061497082615987565b604082019050919050565b600061498860208361507b565b9150614993826159d6565b602082019050919050565b60006149ab600f8361507b565b91506149b6826159ff565b602082019050919050565b60006149ce60218361507b565b91506149d982615a28565b604082019050919050565b60006149f160258361507b565b91506149fc82615a77565b604082019050919050565b6000614a1460248361507b565b9150614a1f82615ac6565b604082019050919050565b6000614a37601a8361507b565b9150614a4282615b15565b602082019050919050565b6000614a5a601d8361507b565b9150614a6582615b3e565b602082019050919050565b6000614a7d60098361507b565b9150614a8882615b67565b602082019050919050565b6000614aa060188361507b565b9150614aab82615b90565b602082019050919050565b6000614ac360258361507b565b9150614ace82615bb9565b604082019050919050565b6000614ae6601f8361507b565b9150614af182615c08565b602082019050919050565b614b05816154eb565b82525050565b614b1481615519565b82525050565b614b2381615572565b82525050565b614b3281615528565b82525050565b614b4181615528565b82525050565b614b5081615532565b82525050565b614b5f81615542565b82525050565b614b6e81615553565b82525050565b614b7d81615565565b82525050565b6000602082019050614b9860008301846146ff565b92915050565b6000604082019050614bb360008301856146ff565b614bc06020830184614b38565b9392505050565b60006020820190508181036000830152614be1818461470e565b905092915050565b6000602082019050614bfe600083018461476c565b92915050565b60006020820190508181036000830152614c1e818461477b565b905092915050565b60006020820190508181036000830152614c3f816147b4565b9050919050565b60006020820190508181036000830152614c5f816147d7565b9050919050565b60006020820190508181036000830152614c7f816147fa565b9050919050565b60006020820190508181036000830152614c9f8161481d565b9050919050565b60006020820190508181036000830152614cbf81614840565b9050919050565b60006020820190508181036000830152614cdf81614863565b9050919050565b60006020820190508181036000830152614cff81614886565b9050919050565b60006020820190508181036000830152614d1f816148a9565b9050919050565b60006020820190508181036000830152614d3f816148cc565b9050919050565b60006020820190508181036000830152614d5f816148ef565b9050919050565b60006020820190508181036000830152614d7f81614912565b9050919050565b60006020820190508181036000830152614d9f81614935565b9050919050565b60006020820190508181036000830152614dbf81614958565b9050919050565b60006020820190508181036000830152614ddf8161497b565b9050919050565b60006020820190508181036000830152614dff8161499e565b9050919050565b60006020820190508181036000830152614e1f816149c1565b9050919050565b60006020820190508181036000830152614e3f816149e4565b9050919050565b60006020820190508181036000830152614e5f81614a07565b9050919050565b60006020820190508181036000830152614e7f81614a2a565b9050919050565b60006020820190508181036000830152614e9f81614a4d565b9050919050565b60006020820190508181036000830152614ebf81614a70565b9050919050565b60006020820190508181036000830152614edf81614a93565b9050919050565b60006020820190508181036000830152614eff81614ab6565b9050919050565b60006020820190508181036000830152614f1f81614ad9565b9050919050565b6000602082019050614f3b6000830184614afc565b92915050565b600060a082019050614f566000830188614b0b565b614f636020830187614b47565b614f706040830186614b47565b614f7d6060830185614b65565b614f8a6080830184614b47565b9695505050505050565b6000602082019050614fa96000830184614b38565b92915050565b6000604082019050614fc46000830185614b38565b614fd16020830184614b1a565b9392505050565b6000604082019050614fed6000830185614b38565b614ffa6020830184614b38565b9392505050565b60006020820190506150166000830184614b56565b92915050565b60006020820190506150316000830184614b74565b92915050565b6000819050602082019050919050565b600081519050919050565b600081519050919050565b6000602082019050919050565b600082825260208201905092915050565b600082825260208201905092915050565b6000615097826154eb565b91506150a2836154eb565b92508261ffff038211156150b9576150b8615632565b5b828201905092915050565b60006150cf82615519565b91506150da83615519565b92508262ffffff038211156150f2576150f1615632565b5b828201905092915050565b600061510882615528565b915061511383615528565b9250827fffffffffffffffffffffffffffffffffffffffffffffffffffffffffffffffff0382111561514857615147615632565b5b828201905092915050565b600061515e82615532565b915061516983615532565b92508263ffffffff0382111561518257615181615632565b5b828201905092915050565b600061519882615542565b91506151a383615542565b92508264ffffffffff038211156151bd576151bc615632565b5b828201905092915050565b60006151d382615553565b91506151de83615553565b92508265ffffffffffff038211156151f9576151f8615632565b5b828201905092915050565b600061520f82615519565b915061521a83615519565b92508261522a57615229615661565b5b828204905092915050565b600061524082615528565b915061524b83615528565b92508261525b5761525a615661565b5b828204905092915050565b6000808291508390505b60018511156152b05780860481111561528c5761528b615632565b5b600185161561529b5780820291505b80810290506152a9856156d0565b9450615270565b94509492505050565b60006152c482615528565b91506152cf83615528565b92506152fc7fffffffffffffffffffffffffffffffffffffffffffffffffffffffffffffffff8484615304565b905092915050565b60008261531457600190506153d0565b8161532257600090506153d0565b8160018114615338576002811461534257615371565b60019150506153d0565b60ff84111561535457615353615632565b5b8360020a91508482111561536b5761536a615632565b5b506153d0565b5060208310610133831016604e8410600b84101617156153a65782820a9050838111156153a1576153a0615632565b5b6153d0565b6153b38484846001615266565b925090508184048111156153ca576153c9615632565b5b81810290505b9392505050565b60006153e282615528565b91506153ed83615528565b9250817fffffffffffffffffffffffffffffffffffffffffffffffffffffffffffffffff048311821515161561542657615425615632565b5b828202905092915050565b600061543c826154eb565b9150615447836154eb565b92508282101561545a57615459615632565b5b828203905092915050565b600061547082615528565b915061547b83615528565b92508282101561548e5761548d615632565b5b828203905092915050565b60006154a482615542565b91506154af83615542565b9250828210156154c2576154c1615632565b5b828203905092915050565b60006154d8826154f9565b9050919050565b60008115159050919050565b600061ffff82169050919050565b600073ffffffffffffffffffffffffffffffffffffffff82169050919050565b600062ffffff82169050919050565b6000819050919050565b600063ffffffff82169050919050565b600064ffffffffff82169050919050565b600065ffffffffffff82169050919050565b600060ff82169050919050565b600061557d82615519565b9050919050565b60005b838110156155a2578082015181840152602081019050615587565b838111156155b1576000848401525b50505050565b600060028204905060018216806155cf57607f821691505b602082108114156155e3576155e2615690565b5b50919050565b60006155f482615528565b91507fffffffffffffffffffffffffffffffffffffffffffffffffffffffffffffffff82141561562757615626615632565b5b600182019050919050565b7f4e487b7100000000000000000000000000000000000000000000000000000000600052601160045260246000fd5b7f4e487b7100000000000000000000000000000000000000000000000000000000600052601260045260246000fd5b7f4e487b7100000000000000000000000000000000000000000000000000000000600052602260045260246000fd5b6000601f19601f8301169050919050565b60008160011c9050919050565b7f4e4f5448494e4720544f20464545440000000000000000000000000000000000600082015250565b7f45524332303a207472616e7366657220746f20746865207a65726f206164647260008201527f6573730000000000000000000000000000000000000000000000000000000000602082015250565b7f45524332303a206275726e20616d6f756e7420657863656564732062616c616e60008201527f6365000000000000000000000000000000000000000000000000000000000000602082015250565b7f4e4f5420454e4f554748204649534820544f20534b4950000000000000000000600082015250565b7f4f776e61626c653a206e6577206f776e657220697320746865207a65726f206160008201527f6464726573730000000000000000000000000000000000000000000000000000602082015250565b7f45524332303a20617070726f766520746f20746865207a65726f20616464726560008201527f7373000000000000000000000000000000000000000000000000000000000000602082015250565b7f4d4f524520464953482052455144000000000000000000000000000000000000600082015250565b7f45524332303a20696e73756666696369656e7420616c6c6f77616e6365000000600082015250565b7f45524332303a207472616e7366657220616d6f756e742065786365656473206260008201527f616c616e63650000000000000000000000000000000000000000000000000000602082015250565b7f4e4f204348494b4e000000000000000000000000000000000000000000000000600082015250565b7f4e4f5420454e4f554748204649534820494e2057414c4c455400000000000000600082015250565b7f434f4f4c444f574e204e4f54204d455400000000000000000000000000000000600082015250565b7f4e4f54205354414b4544204341505441494e20464f52206c6576656c5570436860008201527f696b6e0000000000000000000000000000000000000000000000000000000000602082015250565b7f4f776e61626c653a2063616c6c6572206973206e6f7420746865206f776e6572600082015250565b7f4e4f5420454e4f55474820464953480000000000000000000000000000000000600082015250565b7f45524332303a206275726e2066726f6d20746865207a65726f2061646472657360008201527f7300000000000000000000000000000000000000000000000000000000000000602082015250565b7f45524332303a207472616e736665722066726f6d20746865207a65726f20616460008201527f6472657373000000000000000000000000000000000000000000000000000000602082015250565b7f45524332303a20617070726f76652066726f6d20746865207a65726f2061646460008201527f7265737300000000000000000000000000000000000000000000000000000000602082015250565b7f4e4f54205354414b454420464f5220666565644361707461696e000000000000600082015250565b7f4e4f54205354414b454420464f5220736b6970436f6f6c696e674f6666000000600082015250565b7f4e4f54204f574e45520000000000000000000000000000000000000000000000600082015250565b7f424c4f434b4544204259203234485220434f4f4c444f574e0000000000000000600082015250565b7f45524332303a2064656372656173656420616c6c6f77616e63652062656c6f7760008201527f207a65726f000000000000000000000000000000000000000000000000000000602082015250565b7f45524332303a206d696e7420746f20746865207a65726f206164647265737300600082015250565b615c3a816154cd565b8114615c4557600080fd5b50565b615c51816154df565b8114615c5c57600080fd5b50565b615c6881615528565b8114615c7357600080fd5b5056fea264697066735822122054d753c9fdfb3c9319fa8e37a63ad97bdb3ef381cf4825e2838a13ab6cbb853664736f6c63430008040033",
  "linkReferences": {},
  "deployedLinkReferences": {}
}