{
  "_format": "hh-sol-artifact-1",
  "contractName": "CaptainUtils",
  "sourceName": "contracts/CaptainUtils.sol",
  "abi": [
    {
      "inputs": [
        {
          "internalType": "address",
          "name": "_toAdd",
          "type": "address"
        }
      ],
      "name": "addAuthorized",
      "outputs": [],
      "stateMutability": "nonpayable",
      "type": "function"
    },
    {
      "inputs": [
        {
          "internalType": "uint256",
          "name": "",
          "type": "uint256"
        }
      ],
      "name": "allCaptainDetails",
      "outputs": [
        {
          "internalType": "uint256",
          "name": "tokenId",
          "type": "uint256"
        },
        {
          "internalType": "address",
          "name": "mintedBy",
          "type": "address"
        },
        {
          "internalType": "address",
          "name": "currentOwner",
          "type": "address"
        },
        {
          "internalType": "uint256",
          "name": "previousPrice",
          "type": "uint256"
        },
        {
          "internalType": "uint256",
          "name": "price",
          "type": "uint256"
        },
        {
          "internalType": "uint256",
          "name": "numberOfTransfers",
          "type": "uint256"
        },
        {
          "internalType": "bool",
          "name": "forSale",
          "type": "bool"
        },
        {
          "internalType": "uint256",
          "name": "ton",
          "type": "uint256"
        }
      ],
      "stateMutability": "view",
      "type": "function"
    },
    {
      "inputs": [
        {
          "internalType": "address",
          "name": "",
          "type": "address"
        }
      ],
      "name": "authorized",
      "outputs": [
        {
          "internalType": "bool",
          "name": "",
          "type": "bool"
        }
      ],
      "stateMutability": "view",
      "type": "function"
    },
    {
      "inputs": [
        {
          "internalType": "address",
          "name": "_toRemove",
          "type": "address"
        }
      ],
      "name": "removeAuthorized",
      "outputs": [],
      "stateMutability": "nonpayable",
      "type": "function"
    }
  ],
  "bytecode": "0x608060405234801561001057600080fd5b5061068f806100206000396000f3fe608060405234801561001057600080fd5b506004361061004c5760003560e01c806338b3e16b14610051578063485d7d9414610088578063b9181611146100a4578063cf1c316a146100d4575b600080fd5b61006b60048036038101906100669190610477565b6100f0565b60405161007f98979695949392919061052b565b60405180910390f35b6100a2600480360381019061009d919061044e565b610185565b005b6100be60048036038101906100b9919061044e565b6102e1565b6040516100cb91906104f0565b60405180910390f35b6100ee60048036038101906100e9919061044e565b610301565b005b60016020528060005260406000206000915090508060000154908060010160009054906101000a900473ffffffffffffffffffffffffffffffffffffffff16908060020160009054906101000a900473ffffffffffffffffffffffffffffffffffffffff16908060030154908060040154908060050154908060060160009054906101000a900460ff16908060070154905088565b60008054906101000a900473ffffffffffffffffffffffffffffffffffffffff1673ffffffffffffffffffffffffffffffffffffffff163373ffffffffffffffffffffffffffffffffffffffff1614610213576040517f08c379a000000000000000000000000000000000000000000000000000000000815260040161020a9061050b565b60405180910390fd5b600073ffffffffffffffffffffffffffffffffffffffff168173ffffffffffffffffffffffffffffffffffffffff16141561024d57600080fd5b3373ffffffffffffffffffffffffffffffffffffffff168173ffffffffffffffffffffffffffffffffffffffff16141561028657600080fd5b6000600260008373ffffffffffffffffffffffffffffffffffffffff1673ffffffffffffffffffffffffffffffffffffffff16815260200190815260200160002060006101000a81548160ff02191690831515021790555050565b60026020528060005260406000206000915054906101000a900460ff1681565b60008054906101000a900473ffffffffffffffffffffffffffffffffffffffff1673ffffffffffffffffffffffffffffffffffffffff163373ffffffffffffffffffffffffffffffffffffffff161461038f576040517f08c379a00000000000000000000000000000000000000000000000000000000081526004016103869061050b565b60405180910390fd5b600073ffffffffffffffffffffffffffffffffffffffff168173ffffffffffffffffffffffffffffffffffffffff1614156103c957600080fd5b6001600260008373ffffffffffffffffffffffffffffffffffffffff1673ffffffffffffffffffffffffffffffffffffffff16815260200190815260200160002060006101000a81548160ff02191690831515021790555050565b6000813590506104338161062b565b92915050565b60008135905061044881610642565b92915050565b60006020828403121561046057600080fd5b600061046e84828501610424565b91505092915050565b60006020828403121561048957600080fd5b600061049784828501610439565b91505092915050565b6104a9816105ba565b82525050565b6104b8816105cc565b82525050565b60006104cb6009836105a9565b91506104d682610602565b602082019050919050565b6104ea816105f8565b82525050565b600060208201905061050560008301846104af565b92915050565b60006020820190508181036000830152610524816104be565b9050919050565b600061010082019050610541600083018b6104e1565b61054e602083018a6104a0565b61055b60408301896104a0565b61056860608301886104e1565b61057560808301876104e1565b61058260a08301866104e1565b61058f60c08301856104af565b61059c60e08301846104e1565b9998505050505050505050565b600082825260208201905092915050565b60006105c5826105d8565b9050919050565b60008115159050919050565b600073ffffffffffffffffffffffffffffffffffffffff82169050919050565b6000819050919050565b7f4e6f74206f776e65720000000000000000000000000000000000000000000000600082015250565b610634816105ba565b811461063f57600080fd5b50565b61064b816105f8565b811461065657600080fd5b5056fea2646970667358221220921e8901ca50efe07ad70a799bd5a83c9b6f646b8d3e3f9e7e997e091c6b8a5664736f6c63430008040033",
  "linkReferences": {},
  "deployedLinkReferences": {}
}